:03000000020232C7
:0C023200787FE4F6D8FD75812002011AE7
:100157002052454D4F544520434F4E54524F4C204B
:1001670000202049522D434F44453A202D2D482049
:02017700200066
:10017900E4FDFCC3ED9FEC9E5015E4FBFA0BBB00BC
:0F018900010AEB64724A70F50DBD00010C80E4B1
:010198002244
:0D019900C2B6C2B47F057E001201A6D2B42A
:1001A600E4FDFCC3ED9FEC9E50070DBD00010C80E5
:0101B600F256
:0101B7002225
:1001B800C2B5D2B6D2B47F017E001201A6E5803363
:0601C8009201C2B4A20185
:0101CE00220E
:1001CF00AB071201B840FBAF038F80C2B512019984
:0501DF00C2B40201A6FC
:1001E400AB071201B840FBAF038F80D2B51201995F
:0501F400C2B40201A6E7
:1001F9007F381201CF7F0C1201CF7F061201CF7F0A
:04020900010201CF1E
:07023E00D2A8D288D2AF2242
:10020D00E4F97F017E00120179B29509E9B4B4F2E7
:02021D00D29578
:01021F0022BC
:10022000AD071FED600BE4FEEEC3940D50F20E809F
:01023000F7D6
:0102310022AA
:10011A00D2B2D29512023E1201F97F647E00120118
:10012A00797F801201CFE4FAEA90015793FF120116
:10013A00E40AEAB410F27FC01201CFE4FAEA9001AD
:0D014A006893FF1201E40AEAB410F280FE8F
:03000300020006F2
:10000600C0E0C083C082C0D075D000C001C002C0AD
:0900160003C004C005C006C007C8
:10001F00E4FCC2A87F0F12022030B205D2A8020161
:10002F000320B2077F0112022080F6E4FBE4FA30CE
:10003F00B2077F0112022080F620B2077F01120261
:10004F002080F630B2117F011202200CECC3941EF7
:10005F0040F1D2A802010374002BF582E43400F5BD
:10006F0083E0C313F0ECC39408400E74002BF582A9
:10007F00E43400F583E04480F07C000AEAB408AF72
:10008F000BEBB404A8900003E0F4FF900002E0FE35
:10009F006F6004D2A8805DEE540F900005F09000C1
:1000AF0002E0C4540F900006F0900005E0D39409CD
:1000BF004006E02437F08007900005E02430F090F0
:1000CF000006E0D394094006E02437F08007900043
:1000DF0006E02430F07FCB1201CF900006E0FF1234
:1000EF0001E47FCC1201CF900005E0FF1201E41272
:0400FF00020DD2A874
:10010300D007D006D005D004D003D002D001D0D080
:07011300D082D083D0E0325E
:00000001FF
