:0300000002019862
:0C019800787FE4F6D8FD758107020106AF
:10014F0000C000F900A400B000990092008200F8EE
:10015F00008000900088008300C600A10086008EFA
:10012F00E4FDFCC3ED9FEC9E5015E4FBFA0BBB0006
:0F013F00010AEB64724A70F50DBD00010C80E4FB
:01014E00228E
:10018800758901758C4C758A1ED2A9D28CD2AF2282
:04000E00AB07AA068C
:100012007C007D641200B1900002EFF07C007D64F0
:10002200AF03AE021200B17E007F0ACFCDCFCECC9D
:10003200CE1200B1A3EFF0AE02AF037C007D0A1234
:1000420000B1A905D2A7758001C2A7D2A69000026D
:10005200E025E0244FF582E43401F583740193F541
:1000620080C2A67F017E0012012FD2A7758002C234
:10007200A7D2A6900003E025E0244FF582E43401E4
:10008200F583740193F580C2A612012FD2A7758061
:1000920004C2A7D2A6AF01EF25E0244FF582E434D3
:0F00A20001F583740193F580C2A67F0102012F3F
:10010600120188E4900000F0A3F0900000E0B4141F
:100116000CE4F0A3E004F0E0B46402E4F090000123
:09012600E0FF7E0012000E80E1F2
:03000B0002016F80
:10016F00C0E0C083C082758C4C758A1E900000E081
:09017F0004F0D082D083D0E032FC
:1000B100BC000BBE0029EF8DF084FFADF022E4CC33
:1000C100F875F008EF2FFFEE33FEEC33FCEE9DECFC
:1000D100984005FCEE9DFE0FD5F0E9E4CEFD22ED42
:1000E100F8F5F0EE8420D21CFEADF075F008EF2F8C
:1000F100FFED33FD4007985006D5F0F222C398FD7D
:050101000FD5F0EA2219
:00000001FF
