:0300000002000EED
:0C000E00787FE4F6D8FD75812002031015
:10011900020B024B029302BA0310037003DC0416AC
:10012900049705260575062006E007B8082D095A23
:100139000A4D0AEA0C400DC00F6F0F020E1002069D
:1001490011063C0011020610020E0F063C00100CAD
:100159003C000000000000000F02321002321102C0
:10016900320F02460F02321002321102320F0246DA
:1001790010023211023213025010023211023213EC
:10018900026400000001021E02021E03021E040294
:100199001E05021E06021E07021E08021E09021E75
:1001A9000A021E0B021E0C021E0D021E0E021E0F5B
:1001B900021E10021E11021E12021E13021E14023A
:0501C9001E15021E00DE
:10026800D200E4900008F0EF24FE601C146028140B
:1002780060341460402404704A90000074FFF0A3B6
:100288007401F0A37443F02290000074FFF0A3748B
:1002980001F0A3744DF02290000074FFF0A37401E4
:1002A800F0A37457F02290000074FFF0A37401F0DB
:1002B800A37461F02290000074FFF0A37401F0A30E
:0402C800748EF0221E
:1001CE00900000E0FBA3E0FAA3E0F9900008E0F550
:1001DE008275830012001E6077900008E0F582752C
:1001EE00830012001E25E02417F582E43401F58306
:1001FE0074019325E0FFE49333AB07FAE4F9F87F3B
:10020E00407E427D0FFC1202CCC374FF9F9000050E
:10021E00F074FF9E900004F0900008E02401FFE4CB
:10022E0033FE900000E0FBA3E0FAA3E0F98F828E8C
:10023E008312001E900006F0900008E0F582758390
:10024E0000A3A312001E900007F0A3E02403F022E7
:0A025E00E4900008F0D297C20022DD
:10034200300021900006E06006C29714F08002D2CD
:1003520097900007E0600514F0D28C22C28C120143
:09036200CEC29722C294C28C2283
:1003D800438911758CFF758AEF758DD8758BF0D2AE
:0A03E800A9D2ABC28CD28ED2AF2294
:07036B001202687FD07E073B
:10037200E4FDFCC3ED9FEC9E5015E4FBFA0BBB00C1
:0F038200010AEB64724A70F50DBD00010C80E4B6
:010391002249
:100310001203D82000FD7F0112036B7F02120268D6
:100320007FD01203727F031202687FD01203727FA4
:10033000041202687F407E1F1203727F0512036B56
:0203400080D16A
:03000B000203925B
:10039200C0E0C083C082C0D075D008900004E0FCE9
:1003A200A3E0FDECF58CAF0D8F8AB294D0D0D08251
:0503B200D083D0E03211
:03001B000203B726
:1003B700C0E0C0F0C083C082C0D075D018758DD89A
:1003C700758BF0120342D0D0D082D083D0F0D0E02A
:0103D70032F3
:10001E00BB010CE58229F582E5833AF583E0225097
:10002E0006E92582F8E622BBFE06E92582F8E222E1
:0D003E00E58229F582E5833AF583E49322FB
:1002CC00C2D5E830E70FB2D5E4C39BFBE49AFAE45D
:1002DC0099F9E498F8EC30E717B2D5120302120042
:1002EC0087E4C39BFBE49AFAE499F9E498F8800359
:1002FC0012008730D50DE4C39FFFE49EFEE49DFD04
:04030C00E49CFC224F
:10004B0075F008758200EF2FFFEE33FECD33CDCC6C
:10005B0033CCC58233C5829BED9AEC99E5829840EF
:10006B000CF582EE9BFEED9AFDEC99FC0FD5F0D6CC
:10007B00E4CEFBE4CDFAE4CCF9A88222B800C1B9F6
:10008B000059BA002DEC8BF084CFCECDFCE5F0CB34
:10009B00F97818EF2FFFEE33FEED33FDEC33FCEB6D
:1000AB0033FB10D703994004EB99FB0FD8E5E4F928
:1000BB00FA227818EF2FFFEE33FEED33FDEC33FC15
:1000CB00C933C910D7059BE99A4007EC9BFCE99A09
:1000DB00F90FD8E0E4C9FAE4CCFB2275F010EF2F4E
:1000EB00FFEE33FEED33FDCC33CCC833C810D7074E
:1000FB009BEC9AE899400AED9BFDEC9AFCE899F889
:0E010B000FD5F0DAE4CDFBE4CCFAE4C8F9221B
:00000001FF
