:1002680042756C65546F6F746820446174613A20FC
:010278000085
:0D021D00C2B6C2B47F057E0012022AD2B420
:10022A00E4FDFCC3ED9FEC9E50070DBD00010C8060
:01023A00F2D1
:01023B0022A0
:10023C00C2B5D2B6D2B47F017E0012022AE5803359
:06024C009201C2B4A20100
:010252002289
:10000E00AB0712023C40FBAF038F80C2B512021D3C
:05001E00C2B402022A39
:10025300AB0712023C40FBAF038F80D2B512021DE5
:05026300C2B402022AF2
:0401D9007F057E0020
:1001DD00E4FDFCC3ED9FEC9E5015E4FBFA0BBB0058
:0F01ED00010AEB64724A70F50DBD00010C80E44D
:0101FC0022E0
:1000D9007F0F7E001201DD7F3812000E1201D97FD9
:1000E9003812000E1201D97F3812000E1201D97F81
:1000F9000C12000E1201D90F12000E1201D97F0144
:0A01090012000E7F057E000201DDEA
:05011300900002EDF078
:10011800E4FFFE900002E0FDC3EF9D7480F86E9846
:100128005021E0C39FFDE49ECD24FFCD34FF8D8296
:10013800F583120180F5993099FDC2990FBF00012E
:030148000E80D056
:01014B002291
:07000300EF4480FF02000E34
:1001FD00759850758920758DFD758BFDD2ACD28E9D
:10020D00438901758A67758CFCD28CD2A9D2AF2235
:100026001201FD1200D9E4FF120003E4900000F073
:10003600A3F0900000E0FEA3E0FFC39410EE6480FE
:100046009480502074682FF58274023EF583E49301
:10005600FF120253900001E004F070D6900000E019
:1000660004F080CE3000FD7F28120003E4900000EB
:10007600F0A3F0900000E0FCA3E0FDC395087480B7
:10008600F8EC648098501674092DF8E6FF120253B6
:10009600E004F070DE900000E004F080D6C390002B
:1000A60001E09410900000E06480948050137F205B
:1000B600120253A3E004F070E4900000E004F08024
:1000C600DC7B007A007909AD08120113E4F508C259
:0300D60000809116
:0300230002014C8B
:10014C00C0E0C083C082C0D075D000C00030981908
:10015C00C298900003E4F0E5086410600C200009DC
:10016C0074092508F8A6990508D000D0D0D082D003
:04017C0083D0E0321A
:03000B000201AD42
:1001AD00C0E0C083C082C0D0758A67758CFC90009A
:1001BD0003E004F0E0D394054009E508D394004032
:0C01CD0002D200D0D0D082D083D0E0322B
:0300000002027980
:0C027900787FE4F6D8FD75812002002695
:10018000BB010CE58229F582E5833AF583E0225034
:1001900006E92582F8E622BBFE06E92582F8E2227E
:0D01A000E58229F582E5833AF583E4932298
:00000001FF
