:030000000202D029
:0C02D000787FE4F6D8FD7581200203174A
:1004910048616E74656368204D4355004469737407
:0604A100616E63653A0084
:0D04D1004100070042000900004100080042
:040420007F147E00C7
:10042400E4FDFCC3ED9FEC9E5015E4FBFA0BBB000E
:0F043400010AEB64724A70F50DBD00010C80E403
:010443002296
:0D044400C2B6C2B47F057E00120451D2B4CE
:10045100E4FDFCC3ED9FEC9E50070DBD00010C8037
:01046100F2A8
:010462002277
:10046300C2B5D2B6D2B47F017E00120451E5803307
:060473009200C2B4A200D9
:010479002260
:1004A700AB0712046340FBAF038F80C2B51204444D
:0504B700C2B402045173
:1003E900E4FAF9F8900001E0FCA3E0FDA3E0FEA324
:1003F900E0FF1203A5E47B0AFAF9F81203A5EB243E
:0204090030FFC2
:10040B00AB0712046340FBAF038F80D2B5120444D9
:05041B00C2B40204510F
:10020900E4900005F0A3F07F381204A71204207FC0
:100219000C1204A71204207F061204A71204207FDF
:10022900011204A71204207F641204247F8012049F
:10023900A7120420E4900005F0A3F0900005E0FE69
:10024900A3E0FFC3940BEE64809480502374912F34
:10025900F58274043EF583E493FF12040B12042023
:10026900900006E004F070D3900005E004F080CB24
:100279007FC01204A77F327E00120424E490000597
:10028900F0A3F0900005E0FEA3E0FFC39409EE643B
:100299008094805023749D2FF58274043EF583E485
:1002A90093FF12040B120420900006E004F070D3AF
:1002B900900005E004F080CB7FCD1204A77F6D127A
:0702C900040B7F6D02040B22
:1004BC00C2B2758901E4F58CF58AC28CD2A9C2AAA4
:0504CC00C28AD2AF223C
:06013F001202091204BCCB
:10014500E4900000F0900007E0702ED2B204F0E4D5
:10015500F58CF58AD28CE58AC3940B40F99000079B
:100165007402F0C2B2E4F58CF58AC28C30B3FDD2CC
:10017500AAD28C9000077403F0900007E064047025
:010185005722
:10018600900009E0FEA3E0FFE4FCFD7B547A01F950
:10019600F8120016E47BD07A07F9F81203A590004E
:1001A600011200657FC91204A7E47BE87A031203F3
:1001B600EB7B641203E97B0A1203E9E47B0AFAF992
:1001C600F8900001E0FCA3E0FDA3E0FEA3E0FF122F
:0701D6000404E4900007F0AF
:1001DD00900007E0B4051B7FC91204A77F2D120400
:1001ED000B7F2D12040B7F2D12040B7F2D12040B90
:0901FD00E4F07F647E001204248A
:03020600020145AD
:0300130002035C89
:10035C00C0E0C083C082C0D075D000C004C005C04E
:10036C0006C007900007E0B4031EAF8CEFFEAD8A09
:10037C007C00E42DFFEC3E900009F0A3EFF0C2AA44
:10038C00C28C9000077404F0D007D006D005D004BE
:09039C00D0D0D082D083D0E03231
:03000B0002047A72
:10047A00C0E0C083C082C28CC2AA9000077405F093
:07048A00D082D083D0E032E4
:1002DC0002013FE493A3F8E493A34003F68001F2F8
:1002EC0008DFF48029E493A3F85407240CC8C33323
:1002FC00C4540F4420C8834004F456800146F6DFF2
:10030C00E4800B01020408102040809004D1E47EAC
:10031C00019360BCA3FF543F30E509541FFEE493E6
:10032C00A360010ECF54C025E060A840B8E493A3AD
:10033C00FAE493A3F8E493A3C8C582C8CAC583CAD8
:10034C00F0A3C8C582C8CAC583CADFE9DEE780BE90
:0104DE00001D
:10001600E88FF0A4CC8BF0A42CFCE98EF0A42CFC89
:100026008AF0EDA42CFCEA8EF0A4CDA8F08BF0A407
:100036002DCC3825F0FDE98FF0A42CCD35F0FCEB66
:100046008EF0A4FEA9F0EB8FF0A4CFC5F02ECD392B
:0F005600FEE43CFCEAA42DCE35F0FDE43CFC2298
:1003A500C2D5E830E70FB2D5E4C39BFBE49AFAE483
:1003B50099F9E498F8EC30E717B2D51203DB12008F
:1003C500ADE4C39BFBE49AFAE499F9E498F8800359
:1003D5001200AD30D50DE4C39FFFE49EFEE49DFD04
:0403E500E49CFC2276
:0C006500ECF0A3EDF0A3EEF0A3EFF0220E
:1000710075F008758200EF2FFFEE33FECD33CDCC46
:1000810033CCC58233C5829BED9AEC99E5829840C9
:100091000CF582EE9BFEED9AFDEC99FC0FD5F0D6A6
:1000A100E4CEFBE4CDFAE4CCF9A88222B800C1B9D0
:1000B1000059BA002DEC8BF084CFCECDFCE5F0CB0E
:1000C100F97818EF2FFFEE33FEED33FDEC33FCEB47
:1000D10033FB10D703994004EB99FB0FD8E5E4F902
:1000E100FA227818EF2FFFEE33FEED33FDEC33FCEF
:1000F100C933C910D7059BE99A4007EC9BFCE99AE3
:10010100F90FD8E0E4C9FAE4CCFB2275F010EF2F27
:10011100FFEE33FEED33FDCC33CCC833C810D70727
:100121009BEC9AE899400AED9BFDEC9AFCE899F862
:0E0131000FD5F0DAE4CDFBE4CCFAE4C8F922F5
:00000001FF
