:1000D900E4FDFCC3ED9FEC9E5015E4FBFA0BBB005D
:0F00E900010AEB64724A70F50DBD00010C80E452
:0100F80022E5
:1000F900758901758CFF758AA4D2A9D28CD2AF22D9
:10000E001200F9900000E4F0A37407F07FF47E0173
:10001E001200D9900000E4F0A37407F07F1E7E005A
:10002E001200D9900001E004F07006900000E00488
:10003E00F0C3900001E09417900000E0940040DCC3
:10004E00900000E4F0A37417F0D3900001E0940741
:10005E00900000E0940040BB7F1E7E001200D9A3EA
:0D006E00E024FFF0900000E034FFF080DCA3
:03000B0002007B75
:10007B00C0E0C083C082C0D075D000C006C0077579
:10008B008CFF758AA4900003E004F07006900002C8
:10009B00E004F0D3900003E094C8900002E09400D9
:1000AB004004E4F0A3F0900000E0FEA3E0FFC39057
:1000BB000003E09F900002E09E5004D2878002C2B2
:0E00CB0087D007D006D0D0D082D083D0E032CC
:03000000020109F1
:0C010900787FE4F6D8FD75810702000E37
:00000001FF
