:0300000002000EED
:0C000E00787FE4F6D8FD758107020055EC
:1002170000C000F900A400B000990092008200F825
:10022700008000900088008300C600A10086008E31
:0C025400410002014100000041000100D7
:1001F700E4FDFCC3ED9FEC9E5015E4FBFA0BBB003E
:0F020700010AEB64724A70F50DBD00010C80E432
:0102160022C5
:10023700758901758C4C758A1ED2A9D28CD2AF22D2
:04011300AB07AA0686
:100117007C007D0A120176900003EFF0AE02AF0378
:100127007C007D0A120176A905D2A7758002C2A7B5
:10013700D2A6E025E02417F582E43402F5837401A2
:1001470093F580C2A67F017E001201F7D2A77580C2
:1001570004C2A7D2A6AF01EF25E02417F582E43445
:0F01670002F583740193F580C2A67F010201F7B0
:06024700C39F900001F0CE
:07024D007590FF43B0C022D1
:10009A00120237900002E0B446037401F0900002A5
:1000AA00E0FFC3941F500F741E120247C291C296FA
:1000BA00C293C2B78046900002E0FFC39424500F57
:1000CA007423120247C292C296C293C2B6802D907E
:1000DA000002E0FFC394425010C37441120248C2A6
:1000EA0090C297C294C2B68013900002E0FFC37414
:1000FA0046120248C290C296C295C2B6900001E06A
:09010A00FF7E0012011302009DAA
:03000B000201CB24
:1001CB00C0E0C083C082C0D0758C4C758A1E900075
:1001DB0000E004F0E0B4140B900002E004F0900097
:0C01EB0000E4F0D0D0D082D083D0E0320D
:10001A0002009AE493A3F8E493A34003F68001F262
:10002A0008DFF48029E493A3F85407240CC8C333E7
:10003A00C4540F4420C8834004F456800146F6DFB6
:10004A00E4800B0102040810204080900254E47EF0
:10005A00019360BCA3FF543F30E509541FFEE493AB
:10006A00A360010ECF54C025E060A840B8E493A372
:10007A00FAE493A3F8E493A3C8C582C8CAC583CA9D
:10008A00F0A3C8C582C8CAC583CADFE9DEE780BE55
:01026000009D
:10017600BC000BBE0029EF8DF084FFADF022E4CC6D
:10018600F875F008EF2FFFEE33FEEC33FCEE9DEC36
:10019600984005FCEE9DFE0FD5F0E9E4CEFD22ED7C
:1001A600F8F5F0EE8420D21CFEADF075F008EF2FC6
:1001B600FFED33FD4007985006D5F0F222C398FDB7
:0501C6000FD5F0EA2254
:00000001FF
