:030000000200D922
:0C00D900787FE4F6D8FD7581070200CBAB
:1000BB00C0F9A4B0999282F880908883C6A1868EED
:10008B00E4FDFCC3ED9FEC9E5015E4FBFA0BBB00AB
:0F009B00010AEB64724A70F50DBD00010C80E4A0
:0100AA002233
:1000AB00758901758CFF758AD2D2A9D28CD2AF22F9
:10004F0020B4197F057E0012008B30B4FD900000A4
:10005F00E004F0E0D3945040037450F020B71C7FBD
:10006F00057E0012008B30B7FD900000E0D3941E88
:0C007F005003741EF0900000E014F0220A
:0E00CB001200AB900000741EF012004F80FB7C
:03000B0002000EE2
:10000E00C0E0C083C082C0D075D000C007758CFF21
:10001E00758AD2900001E004F0E0D394644002E4CB
:10002E00F0900000E0FFA3E0C39F5006D284C29080
:10003E008004C284D290D007D0D0D082D083D0E0BA
:01004E00327F
:00000001FF
