:0300000002008378
:0C008300787FE4F6D8FD75810702006D5F
:10003000E4FDFCC3ED9FEC9E5015E4FBFA0BBB0006
:0F004000010AEB64724A70F50DBD00010C80E4FB
:01004F00228E
:1000500020B4197F0A7E0012003020B40C900000FA
:0D006000E004F0E0B40802E4F030B4FD224A
:10000300900000E0FFA3E0FEA807088002C333D8F6
:10001300FCFD900002F0C374089FFFEEA807088060
:0D00230002C313D8FC900003F04DF59022AD
:10006D00E4900000F0A374FEF07590FFF59012007F
:06007D005012000380F8A0
:00000001FF
