:030000000203C434
:0C03C400787FE4F6D8FD7581070202A0E6
:1003A40000C000F900A400B000990092008200F897
:1003B400008000900088008300C600A10086008EA3
:040380007F057E0077
:10038400E4FDFCC3ED9FEC9E5015E4FBFA0BBB00AF
:0F039400010AEB64724A70F50DBD00010C80E4A4
:0103A3002237
:0E000300758921758DF4858D8BD2ABD2AF221D
:1002D400758CDF758A99D28CD28E308DFDC28EC218
:1002E4008DC28CD296758CEF758ACED28CC28E302C
:0B02F4008DFDC28EC28DC28CD29622FE
:1002FF00758CFD758AF7D28CD28E308DFDC28EC271
:10030F008DC28CD296758CFD758AF7D28CC28E30C9
:0B031F008DFDC28EC28DC28CD29622D2
:10032A00758CFD758AF7D28CD28E308DFDC28EC245
:10033A008DC28CD296758CF9758AE5D28CC28E30B4
:0B034A008DFDC28EC28DC28CD29622A7
:10035500758CFE758A0CD28CD28E308DFDC28EC204
:100365008DC28CD296758CFE758A0CD28CC28E305D
:0B0375008DFDC28EC28DC28CD296227C
:1001D100AE07EFF4FFAC05EDF4FD1202D4E4FBEE43
:1001E10030E00512032A80031202FFEEC313FE0B57
:1001F100EBB408EBE4FBEF30E00512032A800312B5
:1002010002FFEFC313FF0BEBB408EBE4FBEC30E0B0
:100211000512032A80031202FFECC313FC0BEBB49B
:1002210008EBE4FBED30E00512032A80031202FF24
:0C023100EDC313FD0BEBB408EB0203550A
:03001B00020011CF
:03001100B2963272
:1002A000E4900000F0A3F0A3F0D296120003120035
:1002B0001E900000EFF0F4600EE0FDFFA3E4F0A359
:1002C000EFF07F551201D1900001E0FEA3E0FF1294
:0402D000023D80DA91
:10001E0090000474FFF075B0FE900003E5B0F0E0C0
:10002E0054F0F0900003E064F06055120380E5B0E8
:10003E00F0E054F0F0900003E064F060E6E5B0F01C
:10004E00E02482602424C0601824E0600C24F07048
:10005E001E9000047401F080169000047402F0806B
:10006E000E9000047403F080069000047404F09067
:10007E000003E064F060BEE5B0F0E054F0F080EF15
:10008E0075B0FD900003E5B0F0E054F0F090000381
:10009E00E064F06055120380E5B0F0E054F0F090AB
:1000AE000003E064F060E6E5B0F0E0248360242411
:1000BE00C0601824E0600C24F0701E9000047405DB
:1000CE00F080169000047406F0800E900004740701
:1000DE00F080069000047408F0900003E064F06075
:1000EE00BEE5B0F0E054F0F080EF75B0FB90000389
:1000FE00E5B0F0E054F0F0900003E064F0605512CB
:10010E000380E5B0F0E054F0F0900003E064F0609E
:10011E00E6E5B0F0E02485602424C0601824E06099
:10012E000C24F0701E9000047409F08016900004E8
:10013E00740AF0800E900004740BF0800690000498
:10014E00740CF0900003E064F060BEE5B0F0E05493
:10015E00F0F080EF75B0F7900003E5B0F0E054F0EA
:10016E00F0900003E064F06054120380E5B0F0E01C
:10017E0054F0F0900003E064F060E6E5B0F0E024A7
:10018E0089602424C0601824E0600C24F0701D9057
:10019E000004740DF08015900004740EF0800D9024
:1001AE000004740FF08005E4900004F0900003E06A
:1001BE0064F060BFE5B0F0E054F0F080EF90000422
:0201CE00E0FF50
:0101D000220C
:10023D00AD07ED54F0FCED540FF9D2A7758001C256
:10024D00A7D2A6AF04EF25E024A4F582E43403F58C
:10025D0083740193F580C2A67F017E00120384D2C0
:10026D00A7758002C2A7D2A6AF01EF25E024A4F5A1
:10027D0082E43403F583740193F580C2A67F0112E5
:10028D000384D2A7758004C2A7D2A6758089C2A6A1
:03029D00020384D5
:00000001FF
