:03000000020316E2
:0C031600787FE4F6D8FD7581070202D361
:1002F60000C000F900A400B000990092008200F846
:10030600008000900088008300C600A10086008E51
:0402AF007F057E0049
:1002B300E4FDFCC3ED9FEC9E5015E4FBFA0BBB0081
:0F02C300010AEB64724A70F50DBD00010C80E476
:0102D2002209
:0401B700AB07AA06E2
:1001BB007C007D6412025A900002EFF07C007D649B
:1001CB00AF03AE0212025A7E007F0ACFCDCFCECC48
:1001DB00CE12025AA3EFF0AE02AF037C007D0A12DF
:1001EB00025AA905D2A7758001C2A7D2A690000218
:1001FB00E025E024F6F582E43402F583740193F5EF
:10020B0080C2A67F017E001202B3D2A7758002C204
:10021B00A7D2A6900003E025E024F6F582E4340291
:10022B00F583740193F580C2A61202B3D2A7758031
:10023B0004C2A7D2A6AF01EF25E024F6F582E43481
:0F024B0002F583740193F580C2A67F010202B30E
:1000030090000374FFF075B0FE900002E5B0F0E0DD
:1000130054F0F0900002E064F060551202AFE5B0D6
:10002300F0E054F0F0900002E064F060E6E5B0F038
:10003300E02482602424C0601824E0600C24F07063
:100043001E9000037401F080169000037402F08088
:100053000E9000037403F080069000037404F09084
:100063000002E064F060BEE5B0F0E054F0F080EF31
:1000730075B0FD900002E5B0F0E054F0F09000029E
:10008300E064F060551202AFE5B0F0E054F0F09098
:100093000002E064F060E6E5B0F0E024836024242D
:1000A300C0601824E0600C24F0701E9000037405F7
:1000B300F080169000037406F0800E90000374071E
:1000C300F080069000037408F0900002E064F06092
:1000D300BEE5B0F0E054F0F080EF75B0FB900002A5
:1000E300E5B0F0E054F0F0900002E064F0605512E7
:1000F30002AFE5B0F0E054F0F0900002E064F0608D
:10010300E6E5B0F0E02485602424C0601824E060B4
:100113000C24F0701E9000037409F0801690000305
:10012300740AF0800E900003740BF08006900003B5
:10013300740CF0900002E064F060BEE5B0F0E054AF
:10014300F0F080EF75B0F7900002E5B0F0E054F006
:10015300F0900002E064F060551202AFE5B0F0E009
:1001630054F0F0900002E064F060E6E5B0F0E024C3
:1001730089602424C0601824E0600C24F0701E9071
:100183000003740DF08016900003740EF0800E903F
:100193000003740FF080069000037410F0900002C7
:1001A300E064F060BEE5B0F0E054F0F080EF900062
:0301B30003E0FF67
:0101B6002226
:1002D300E4900001F0900000F0120003900000EFA2
:1002E300F0F46003E0A3F0900001E0FF7E00120150
:0302F300B780E6EB
:10025A00BC000BBE0029EF8DF084FFADF022E4CC88
:10026A00F875F008EF2FFFEE33FEEC33FCEE9DEC51
:10027A00984005FCEE9DFE0FD5F0E9E4CEFD22ED97
:10028A00F8F5F0EE8420D21CFEADF075F008EF2FE1
:10029A00FFED33FD4007985006D5F0F222C398FDD2
:0502AA000FD5F0EA226F
:00000001FF
