:0300000002011FDB
:0C011F00787FE4F6D8FD758107020166C8
:1002880000C000F900A400B000990092008200F8B4
:10029800008000900088008300C600A10086008EC0
:0A030E0047000506031403105955BB
:0A023900A3E0FD1202C57F057E0060
:10024300E4FDFCC3ED9FEC9E5015E4FBFA0BBB00F1
:0F025300010AEB64724A70F50DBD00010C80E4E6
:010262002279
:1000030090000FE0FF75F00A8475F00A84AEF0EFFC
:1000130075F00A84A9F0D2A7758001C2A7E4F58020
:10002300D2A6EE25E02488F582E43402F583740138
:1000330093F580C2A67F017E00120243D2A775808A
:1000430002C2A7E4F580D2A6E925E02488F582E47C
:100053003402F583740193F580C2A6120243900023
:1000630001E0FF75F00A8475F00A84AEF0EF75F0D5
:100073000A84A9F0D2A7758004C2A7E4F580D2A6AA
:10008300EE25E02488F582E43402F583740193F5C8
:1000930080C2A67F017E00120243D2A7758008C2E8
:1000A300A7E4F580D2A6E925E02488F582E43402AA
:1000B300F583740193F580C2A6120243900000E019
:1000C300FF75F00A8475F00A84AEF0EF75F00A84C8
:1000D300A9F0D2A7758010C2A7E4F580D2A6AF0617
:1000E300EF25E02488F582E43402F583740193F567
:1000F30080C2A67F017E00120243D2A7758020C270
:10010300A7E4F580D2A6AF01EF25E02488F582E4C9
:0B0113003402F583740193F580C2A64E
:01011E0022BE
:1002FB007E08EF139292D2910000C291EFC313FFCD
:02030B00DEF022
:01030D0022CD
:1002A800E4FFFE7D08D292EEC313FEEF13FF3092F7
:0C02B800034480FFD2910000C291DDE9F8
:0102C4002217
:1002C500C2930000C2910000D2931202FB0000AF5E
:0B02D500051202FBD2910000C2932230
:10026300C2930000C2910000D2931202FB1202A8B3
:10027300D2910000C293EF540FFEEFC4540F75F0F8
:040283000AA42EFF9C
:010287002254
:1001AB00E4FD7F8E12023C900005E0FD7F8C120275
:1001BB003C7F881202397F86120239A3E0FD7F8AC9
:1001CB0012023CA3E0FD7F8412023CA3E0FD7F8280
:1001DB0012023CA3E0FD7F8012023C7D807F8E12D9
:0901EB0002C57F057E00020243FB
:1001F4007F81120263900000EFF07F83120263A3F9
:10020400EFF07F8512026390000FEFF07F8B1202F4
:1002140063900004EFF07F8712026390000EEFF00A
:100224007F89120263900002EFF07F8D12026390C7
:05023400000CEFF022B8
:1002E0007F647E001202431201ABE4900003F090A1
:0B02F000000DF01201F412000380F872
:10012B000202E0E493A3F8E493A34003F68001F208
:10013B0008DFF48029E493A3F85407240CC8C333D5
:10014B00C4540F4420C8834004F456800146F6DFA4
:10015B00E4800B010204081020408090030EE47E23
:10016B00019360BCA3FF543F30E509541FFEE49399
:10017B00A360010ECF54C025E060A840B8E493A360
:10018B00FAE493A3F8E493A3C8C582C8CAC583CA8B
:10019B00F0A3C8C582C8CAC583CADFE9DEE780BE43
:0103180000E4
:00000001FF
