:03000000020220D9
:0C022000787FE4F6D8FD7581070200A28B
:1001900000C000F900A400B000990092008200F8AD
:1001A000008000900088008300C600A10086008EB9
:04014C007F017E00B1
:10015000E4FDFCC3ED9FEC9E5015E4FBFA0BBB00E5
:0F016000010AEB64724A70F50DBD00010C80E4DA
:01016F00226D
:04000300AB07AA0697
:100007007C007D641200F7900004EFF07C007D64B3
:10001700AF03AE021200F77E007F0ACFCDCFCECC62
:10002700CE1200F7A3EFF0AE02AF037C007D0A12F9
:1000370000F7A905D2A7758001C2A7D2A690000430
:10004700E025E02490F582E43401F583740193F50B
:1000570080C2A612014CD2A7758002C2A7D2A69071
:100067000005E025E02490F582E43401F58374016E
:1000770093F580C2A6120150D2A7758004C2A7D2F9
:10008700A6AF01EF25E02490F582E43401F58374EF
:0B0097000193F580C2A67F010201501A
:0A022C00D2A400D2A300C2A4002255
:0A023600C2A400D2A300D2A400224B
:0801700012022C7F901201ED38
:10017800D2A30030A40E900004E0C394FA5005E026
:0701880004F080EFC2A300A8
:01018F00224D
:07024000D2A400D2A30022AA
:1001CF00C2A300D2A400E4FED2A300EF25E0FDA25B
:0D01DF00A4E4334DFFC2A3000EEEB408EB04
:0101EC0022F0
:1001ED00E4FEEF25E0FFC2A30092A400D2A3000E0F
:0A01FD00EEB408EEC2A300D2A40085
:0102070022D4
:10020800AC07120170AF041201ED120178AF0512AC
:0802180001ED1201780202362B
:0201B000AD0799
:1001B200120170AF051201ED12017812022C7F912B
:0C01C2001201ED1201781201CF1202367A
:0101CE00220E
:1000A200E4900002F0A3F0120240900002E070041B
:1000B200A3E0640A7024900002F0A3F07F401201D2
:1000C200B0900000E4F0A3EFF012014C900000A306
:1000D200E0FD7F4012020812014C900003E004F0A0
:1000E2007006900002E004F0900000E0FEA3E0FF42
:0500F20012000380B5BF
:1000F700BC000BBE0029EF8DF084FFADF022E4CCED
:10010700F875F008EF2FFFEE33FEEC33FCEE9DECB5
:10011700984005FCEE9DFE0FD5F0E9E4CEFD22EDFB
:10012700F8F5F0EE8420D21CFEADF075F008EF2F45
:10013700FFED33FD4007985006D5F0F222C398FD36
:050147000FD5F0EA22D3
:00000001FF
