:03000000021935AD
:10193500787FE4F6D8FD9000007F007E04E4F0A3F4
:10194500DFFCDEFA750D01750E0075815202149AE1
:101906002A2A2A2A2A2A2A2A5461736B312A2A2A3F
:101916002A2A0D0A002A2A2A2A2A2A2A2A546173DE
:0F1926006B322A2A2A2A2A2A2A2A2A2A0D0A005A
:0A19A500AE078E993099FDC2992219
:10184A0090FFFD120610EBF0A3EAF0A3E9F0850D74
:10185A0083850E82E0F9A3E0FAA3E0850D83850E65
:10186A0082C9F0A3EAF0A3E9F0B290C2AF7BFF7A93
:10187A00197906120091D2AF7E007F3212141780B6
:01188A00E875
:10188B0090FFFD120610EBF0A3EAF0A3E9F0850D33
:10189B0083850E82E0F9A3E0FAA3E0850D83850E24
:1018AB0082C9F0A3EAF0A3E9F0B291C2AF7BFF7A51
:1018BB0019791B120091D2AF7E007F64121417802E
:0118CB00E834
:10149A007590FF12199612197512000E90FFFF121D
:1014AA0006107401F0FB7A00798D90FFFD12061088
:1014BA00EBF0A3EAF0A3E9F07B007A00790090FF51
:1014CA00FD120610EBF0A3EAF0A3E9F07BFF7A180D
:1014DA00794A120DE290FFFF1206107402F07B01A6
:1014EA007A0079AD90FFFD120610EBF0A3EAF0A3A3
:1014FA00E9F07B007A00790090FFFD120610EBF00C
:10150A00A3EAF0A3E9F07BFF7A18798B120DE202C5
:02151A00169821
:100F3B0001020408102040800000010002000100A3
:100F4B000300010002000100040001000200010087
:100F5B000300010002000100050001000200010076
:100F6B000300010002000100040001000200010067
:100F7B000300010002000100060001000200010055
:100F8B000300010002000100040001000200010047
:100F9B000300010002000100050001000200010036
:100FAB000300010002000100040001000200010027
:100FBB000300010002000100070001000200010014
:100FCB000300010002000100040001000200010007
:100FDB0003000100020001000500010002000100F6
:100FEB0003000100020001000400010002000100E7
:100FFB0003000100020001000600010002000100D5
:10100B0003000100020001000400010002000100C6
:10101B0003000100020001000500010002000100B5
:10102B0003000100020001000400010002000100A6
:08103B000300010002000100A6
:0F19960012195512161D1210431200090218CC17
:101986007823E6B40109782EE6C394FF50010622B7
:10151C007823E664017079C2AF782EE6D39400404C
:10152C000116782EE670677824E670627822E690D1
:10153C000F43937847F6E6FF248CF582E43400F5EC
:10154C0083E0900F4393FEEF33333354F8FFEE2FC9
:10155C00FF7852F618E66F603508E675F003A424A0
:10156C0032F8860308E6FA08E6F9782FA60308A6EF
:10157C000208A60178481204CAEF2401FFE43EFEDB
:10158C00E43DFDE43CFC78481204D6121389D2AF3A
:01159C00222C
:0616980090FFFE12061097
:10169E007823E6706018E6900F4393850D83850ED0
:1016AE0082F0E0FF248CF582E43400F583E0900FA5
:1016BE004393850D83850E82A3F0EF33333354F8B5
:1016CE00FF850D83850E82A3E02F7852F618F675EE
:1016DE00F003A42432F8860308E6FA08E6F9782F18
:1016EE00A60308A60208A601782BA60308A60208E0
:0516FE00A6011217B562
:0617030090000202061036
:06113F0090FFFD120610F6
:101145007823E66401600302122F7825860308E6FA
:10115500FA08E6F9850D83850E82EBF0A3EAF0A384
:10116500E9F0850D83850E82E0FBA3E0FAA3E0F9A3
:1011750090000C12038B6406700302122FC2AF900D
:10118500000912041845F0607A850D83850E82E00A
:10119500FBA3E0FAA3E0F990000974FFF5F012044F
:1011A5005045F0705E90000B12038B20E33D9000DC
:1011B5001012038B782246F690000E12038B248CB6
:1011C500F582E43400F583C083C082E0FF850D839A
:1011D500850E82E0FBA3E0FAA3E0F990000F12036D
:1011E5008BFEEF4ED082D083F08018850D83850E5F
:1011F50082E0FBA3E0FAA3E0F9900009E475F001B1
:1012050012049D850D83850E82E0FBA3E0FAA3E021
:10121500F9900003120587850D83850E82EBF0A3F7
:0A122500EAF0A3E9F0D2AF0211676E
:06122F009000030206100E
:050003007E007FFC22DD
:0100080022D5
:0100090022D4
:10195500E4782EF67824F67850F67823F67848124F
:1019650004EE00000000784C1204EE000000002296
:06161D0090FFFB12061015
:10162300E47822F67B01850D83850E82A3A304F063
:10163300A37400F0A3748CF0850D83850E82E4F00F
:10164300A3F0850D83850E82E0FEA3E0C39401EE33
:1016530094005027850D83850E82A3A3E0FBA3E4AA
:1016630075F001120402A9F0FAE41203B8850D83A0
:10167300850E8275F0011203EC80C7E47851F608F9
:0F168300F6782FF608F608F6782BF608F608F634
:06169200900005020610A5
:1018CC0090FFFF1206107406F07B017A00796C9081
:1018DC00FFFD120610EBF0A3EAF0A3E9F07B007A0F
:1018EC0000790090FFFD120610EBF0A3EAF0A3E9DB
:0A18FC00F07BFF7A187904020DE278
:0610430090FFF9120610F7
:1010490078257600087600087600850D83850E825E
:10105900E4F0850D83850E82E0FFC39407501BEFF2
:1010690075F003A42432F876000876000876008526
:101079000D83850E82E004F080D8850D83850E826C
:10108900A37401F0A37400F0A37400F07B017A004B
:101099007912900004120634EBF0A3EAF0A3E9F008
:1010A900850D83850E82E4F0850D83850E82E0C36C
:1010B90094055051900004120634E0FBA3E0FAA312
:1010C900E0F9C003C002C001850D83850E82A3E04B
:1010D900FBA3E0FAA3E0F99000031205B7850D839D
:1010E900850E82A3A3E475F0121203EC900004129A
:1010F9000634A3E475F0121203EC850D83850E8284
:10110900E004F080A37B007A007900C003C002C02C
:1011190001850D83850E82A3E0FBA3E0FAA3E0F924
:101129009000031205B77828760108760008760042
:0611390090000702061001
:06159D0090FFFF12061092
:1015A300C2AF782EE6706B7824E670667822E690F8
:1015B3000F4393850D83850E82F0E0FF248CF58223
:1015C300E43400F583E0900F4393FEEF3333335459
:1015D300F8FFEE2FFF7852F618E66F603508E675D0
:1015E300F003A42432F8860308E6FA08E6F9782F14
:1015F300A60308A60208A60178481204CAEF24012C
:10160300FFE43EFEE43DFDE43CFC78481204D612C0
:0416130012E0D2AF60
:0616170090000102061024
:1018040090FFFD120610EBF0A3EAF0A3E9F0850DBA
:1018140083850E82E0F9A3E0FAA3E0850D83850EAB
:1018240082C9F0A3EAF0A3E9F0C2AF784C1204CA6B
:10183400EF2401FFE43EFEE43DFDE43CFC784C1261
:0618440004D6D2AF80E3E0
:1006D90090FFFD120610EBF0A3EAF0A3E9F090FFFA
:0C06E900FF120610EFF090FFFD1206104B
:1006F500C2AF7828860308E6FA08E6F9850D8385F2
:100705000E82EBF0A3EAF0A3E9F0850D83850E8256
:10071500E0FBA3E0FAA3E04A4B7003020949850D0B
:1007250083850E82E0FBA3E0FAA3E0F990000312B3
:1007350005877828A60308A60208A601D2AF90006F
:1007450004120634E0FBA3E0FAA3E0F9C003C002FB
:10075500C001850D83850E82E0FBA3E0FAA3E0F9D5
:10076500120538900003120634E0FF850D83850ECF
:1007750082E0FBA3E0FAA3E0F990000CEF1203CAB4
:1007850090000BE41203CA900009E4F5F012049DF1
:10079500900010120634E0FBA3E0FAA3E0F9900004
:1007A50010120634EBF0A3EAF0A3E9F090000C1266
:1007B5000634E0FCA3E0FDA3E0FEA3E0FF90000CFF
:1007C5001206341204E2900007120634E0FBA3E09F
:1007D500FAA3E0F9900007120634EBF0A3EAF0A3C0
:1007E500E9F0900013120634E0FEA3E0FF90001339
:1007F500120634EEF0A3EFF090000A120634E0FE84
:10080500A3E0FF90000A120634EEF0A3EFF0850D89
:1008150083850E82E0FBA3E0FAA3E0F9900011E4E2
:100825001203CA900003120634E0FF131313541F7A
:1008350090000E1203CA90000E12038B900F3B938B
:100845009000101203CAEF540790000D1203CA90CE
:10085500000D12038B900F3B9390000F1203CAC239
:10086500AF900003120634E075F003A42432F8A615
:100875000308A60208A6017825860308E6FA08E615
:10088500F9C003C002C001850D83850E82E0FBA37C
:10089500E0FAA3E0F99000031205B77B007A00792E
:1008A50000C003C002C001850D83850E82E0FBA355
:1008B500E0FAA3E0F99000061205B778258603084B
:1008C500E6FA08E64A4B6024850D83850E82E0FB37
:1008D500A3E0FAA3E0F9C003C002C00178258603AE
:1008E50008E6FA08E6F99000061205B7850D838536
:1008F5000E82E0FBA3E0FAA3E0F97825A60308A69B
:100905000208F690001012038B782246F690000E2E
:1009150012038B248CF582E43400F583C083C082F6
:10092500E0FF850D83850E82E0FBA3E0FAA3E0F9E5
:1009350090000F12038BFEEF4ED082D083F0D2AF22
:080945007F008004D2AF7F4661
:06094D00900015020610E7
:100DE20090FFFD120610EBF0A3EAF0A3E9F090FFEA
:040DF200FC120610D9
:100DF600C2AF90000D120634E0FF75F003A4243252
:100E0600F8860308E6FA08E64A4B6003020F31EF5C
:100E160075F003A42432F87600087600087601D22D
:100E2600AF90FFFE120610E4F0A3F090000C12063D
:100E360034E0FBA3E0FAA3E0F990FFFD120610EB05
:100E4600F0A3EAF0A3E9F090000C120634E0FBA34D
:100E5600E0FAA3E0F990FFFD120610EBF0A3EAF02A
:100E6600A3E9F090000C120634E0FBA3E0FAA3E03D
:100E7600F9120953850D83850E82EBF0A3EAF0A3E0
:100E8600E9F090FFFE120610E4F0A3F0FBFAF990E9
:100E9600FFFD120610EBF0A3EAF0A3E9F090FFFCC9
:100EA6001206101205070000000090FFFE12061041
:100EB600E4F0A3F0FBFAF990FFFD120610EBF0A3A5
:100EC600EAF0A3E9F090000E120634E0FBA3E0FA84
:100ED600A3E0F990001B120634E0FF1206D9900039
:100EE60003120634EFF0900003120634E07012C2CB
:100EF600AF785006D2AF7823E6B4012512159D804F
:100F060020C2AF7B007A00790090000D120634E013
:100F160075F003A42432F8A60308A60208A601D297
:0F0F2600AF900003120634E0FF8004D2AF7F28A3
:060F350090000E02061000
:0E0BB60090FFFF120610EFF090FFFD120610E8
:100BC400782EE6D3940040057F3F020DDCC2AF903F
:100BD4000003120634E0B4FF19782B860308E6FA02
:100BE40008E6F990000C12038BFF90000312063400
:100BF400EFF0900003120634E075F003A42432F8F9
:100C0400860308E6FA08E6F9850D83850E82EBF083
:100C1400A3EAF0A3E9F0850D83850E82E0FBA3E04F
:100C2400FAA3E04A4B7003020DD8850D83850E822A
:100C3400E0FBA3E0FAA3E0F990000E12038B248CEE
:100C4400F582E43400F583C083C082E0FF850D8320
:100C5400850E82E0FBA3E0FAA3E0F990000F1203F3
:100C64008BF4FEEF5ED082D083F0700B90001012F4
:100C7400038BF4782256F6850D83850E82E0FBA360
:100C8400E0FAA3E0F9900009E4F5F012049D900065
:100C94000BE41203CA7824E6C394FF500106D2AFD2
:100CA400120008C2AF7824E6D394004001167850AD
:100CB400167B007A007900900003120634E075F088
:100CC40003A42432F8A60308A60208A601850D830E
:100CD400850E82E0FBA3E0FAA3E0F990000612057A
:100CE40087E94A4B7043FBFAF9C003C002C001858F
:100CF4000D83850E82E0FBA3E0FAA3E0F9900003E4
:100D04001205879000061205B7850D83850E82E0D3
:100D1400FBA3E0FAA3E0F99000031205877825A667
:100D24000308A60208A6018068850D83850E82E06B
:100D3400FBA3E0FAA3E0F9900003120587C003C007
:100D440002C001850D83850E82E0FBA3E0FAA3E0D7
:100D5400F99000061205879000031205B7850D83EC
:100D6400850E82E0FBA3E0FAA3E0F99000061205E9
:100D740087C003C002C001850D83850E82E0FBA3FA
:100D8400E0FAA3E0F990000312058790000612052B
:100D9400B77828860308E6FA08E6F9C003C002C05B
:100DA40001850D83850E82E0FBA3E0FAA3E0F990B0
:100DB40000031205B7850D83850E82E0FBA3E0FADC
:100DC400A3E07828A60308A60208F6D2AF12159D60
:080DD4007F008004D2AF7F3CD8
:060DDC0090000402061065
:0E12350090FFFF120610EFF090FFFB12061064
:10124300900005120634E0FEB4FF1FC2AF782B8670
:101253000308E6FA08E6F990001112038B850D8363
:10126300850E82F0D2AFE0FF806DC2AFEE75F00362
:10127300A42432F8860308E6FA08E6F9850D838587
:101283000E82A3A3EBF0A3EAF0A3E9F0850D838517
:101293000E82A3A3E0FBA3E0FAA3E04A4B602385FD
:1012A3000D83850E82A3A3E0FBA3E0FAA3E0F990EC
:1012B3000011743E1203CA850D83850E82A3E4F0E8
:1012C300800A850D83850E82A3740BF0D2AF850D42
:0712D30083850E82A3E0FFFA
:0612DA0090000602061060
:1014170090FFFE120610EEF0A3EFF0850D83850E08
:1014270082E0FEA3E0FFD39400EE9400405FC2AFDA
:10143700782B860308E6FA08E6F990000E12038B6C
:10144700248CF582E43400F583C083C082E0FD7804
:101457002B860308E6FA08E6F990000F12038BF4CF
:10146700FCED5CD082D083F0700B90001012038BE0
:10147700F4782256F6782B860308E6FA08E6F99000
:101487000009EE8FF012049DD2AF12159D90000255
:031497000206103A
:1017B50078237601782F088683088682A3E0F8A32C
:1017C500E0F988838982E0FD7853A308E0F6DDFA25
:1017D5008881A3E0F50DA3E0F50ED0E0FFD0E0FE93
:1017E500D0E0FDD0E0FCD0E0FBD0E0FAD0E0F9D0CD
:0F17F500E0F8D083D082D0F0D0E0D0D0D2AF32A5
:1012E000C0D0C0E0C0F0C082C083E8C0E0E9C0E088
:1012F000EAC0E0EBC0E0ECC0E0EDC0E0EEC0E0EF43
:10130000C0E0E581C39453FD782B0886830886826C
:10131000A3E0F8A3E0F988838982EDF07853A3086D
:10132000E6F0DDFAA3E50DF0A3E50EF0782B792FBA
:10133000E7F60809E7F60809E7F678517952E7F683
:10134000782F088683088682A3E0F8A3E0F98883D3
:101350008982E0FD7853A308E0F6DDFA8881A3E0F6
:10136000F50DA3E0F50ED0E0FFD0E0FED0E0FDD01B
:10137000E0FCD0E0FBD0E0FAD0E0F9D0E0F8D08398
:09138000D082D0F0D0E0D0D032D0
:10138900E581C39404F581E581C39453FD782B0865
:101399008683088682A3E0F8A3E0F988838982ED31
:1013A900F07853A308E6F0DDFAA3E50DF0A3E50E06
:1013B900F0782B792FE7F60809E7F60809E7F678B8
:1013C900517952E7F6782F088683088682A3E0F8D8
:1013D900A3E0F988838982E0FD7853A308E0F6DD6C
:1013E900FA8881A3E0F50DA3E0F50ED0E0FFD0E087
:1013F900FED0E0FDD0E0FCD0E0FBD0E0FAD0E0F98F
:0E140900D0E0F8D083D082D0F0D0E0D0D03246
:03000B00021709D0
:10170900C2AFC0D0C0E0C0F0C082C083E8C0E0E989
:10171900C0E0EAC0E0EBC0E0ECC0E0EDC0E0EEC044
:10172900E0EFC0E0121986C28C758CDC758A06D28E
:101739008C12113F12151CD0E0FFD0E0FED0E0FD65
:10174900D0E0FCD0E0FBD0E0FAD0E0F9D0E0F8D06E
:0A17590083D082D0F0D0E0D0D0326F
:030023000217635E
:10176300C2AFC0D0C0E0C0F0C082C083E8C0E0E92F
:10177300C0E0EAC0E0EBC0E0ECC0E0EDC0E0EEC0EA
:10178300E0EFC0E012198612000A12151CD2AFD086
:10179300E0FFD0E0FED0E0FDD0E0FCD0E0FBD0E005
:1017A300FAD0E0F9D0E0F8D083D082D0F0D0E0D006
:0217B300D03232
:1009530090FFFD120610EBF0A3EAF0A3E9F090FF7D
:04096300FD1206106B
:10096700900006120634E0FBA3E0FAA3E0F990003A
:1009770006120634EBF0A3EAF0A3E9F090000C129C
:100987000634E0FEA3E0FF90000C120634EEF0A35D
:10099700EFF0900009120634E0F9A3E0FAA3E0852E
:1009A7000D83850E82C9F0A3EAF0A3E9F0850D83D4
:1009B700850E82E0FBA3E475F001120402A9F0FAA8
:1009C700740F1203B8900003120634A3A3E0FF8547
:1009D7000D83850E82E0FBA3E475F001120402A9E2
:1009E700F0FAEF1203B8900003120634A3E0FAEA14
:1009F700FF850D83850E82E0FBA3E475F0011204E9
:100A070002A9F0FAEF1203B8850D83850E82E0FB89
:100A1700A3E475F001120402A9F0FAE41203B88501
:100A27000D83850E82E0FBA3E475F001120402A991
:100A3700F0FA740A1203B8850D83850E82E0FBA3D2
:100A4700E475F001120402A9F0FA740B1203B885D9
:100A57000D83850E82E0FBA3E475F001120402A961
:100A6700F0FAE41203B8850D83850E82E0FBA3E458
:100A770075F001120402A9F0FAE41203B8850D8398
:100A8700850E82E0FBA3E475F001120402A9F0FAD7
:100A9700E41203B8900006120634A3A3E0FF850D05
:100AA70083850E82E0FBA3E475F001120402A9F02E
:100AB700FAEF1203B8900006120634A3E0FAEAFF31
:100AC700850D83850E82E0FBA3E475F00112040215
:100AD700A9F0FAEF1203B8850D83850E82E0FBA318
:100AE700E475F001120402A9F0FA74011203B88543
:100AF7000D83850E82E0FBA3E475F001120402A9C1
:100B0700F0FA74041203B8850D83850E82E0FBA307
:100B1700E475F001120402A9F0FA74051203B8850E
:100B27000D83850E82E0FBA3E475F001120402A990
:100B3700F0FA74061203B8850D83850E82E0FBA3D5
:100B4700E475F001120402A9F0FA74071203B890D1
:100B57000009120634A3E0FAA3E02420E43AFF8553
:100B67000D83850E82E0FBA3E475F001120402A950
:100B7700F0FAEF1203B8900009120634A3A3E02499
:100B870020F9AF01850D83850E82E0FBA3E475F0A4
:100B970001120402A9F0FAEF1203B8900009120635
:090BA70034E0FBA3E0FAA3E0F93D
:060BB00090000E02061089
:101975005389F0438901758CDC758A06D2A9D28C0E
:01198500223F
:01000A0022D3
:10000E00759850438920758DFD758BFDD28ED2ACBF
:03001E00C2BC223F
:10038B00BB010CE58229F582E5833AF583E0225027
:10039B0006E92582F8E622BBFE06E92582F8E22271
:0D03AB00E58229F582E5833AF583E493228B
:1003B800BB010689828A83F0225002F722BBFE0124
:0203C800F3221E
:1003CA00F8BB010DE58229F582E5833AF583E8F069
:1003DA00225006E92582C8F622BBFE05E92582C815
:0203EA00F222FD
:1003EC00C5F0F8A3E028F0C5F0F8E582158270029C
:0603FC001583E038F02239
:10040200A3F8E0C5F025F0F0E582158270021583AD
:06041200E0C838F0E8220A
:10041800BB0110E58229F582E5833AF583E0F5F022
:10042800A3E0225009E92582F886F008E622BBFEFF
:100438000AE92582F8E2F5F008E222E5832AF58345
:08044800E993F5F0A3E993220A
:10045000BB010DC58229C582C5833AC5830203EC61
:100460005011C58229F808E5F026F618F5F0E58266
:1004700036F622BBFE11C58229F808E225F0F5F018
:10048000F218E23582F222F8E58229F582E5832A24
:0D049000F58374019325F0F5F0E493382214
:10049D00F8BB0111E58229F582E5833AF583E8F091
:1004AD00E5F0A3F0225009E92582C8F608A6F0224E
:0D04BD00BBFE09E92582C8F2E5F008F22235
:0C04CA00E6FC08E6FD08E6FE08E6FF225E
:0C04D600ECF608EDF608EEF608EFF62252
:0C04E200ECF0A3EDF0A3EEF0A3EFF0228D
:1004EE00D083D082E493F608740193F608740293D5
:0904FE00F608740393F67404730C
:10050700A8828583F0D083D08212051E12051E12A1
:10051700051E12051EE473E493A3C583C5F0C583C6
:10052700C8C582C8F0A3C583C5F0C583C8C582C83E
:0105370022A1
:10053800BB011A89828A83D0F0D0E0F8D0E0F9D0E4
:10054800E0FAD0E0FBE8C0E0C0F002068C5016E903
:10055800F8D083D082D0E0F9D0E0FAD0E0FBC082B6
:10056800C083020663BBFE16E9F8D083D082D0E0D0
:0F057800F9D0E0FAD0E0FBC082C08302069E22D9
:10058700BB010DE58229F582E5833AF58302066C06
:100597005007E92582F802065ABBFE07E92582F8CB
:1005A700020695E58229F582E5833AF5830206A7D7
:1005B700BB0120E58229F582E5833AF583D0F0D0A7
:1005C700E0F8D0E0F9D0E0FAD0E0FBE8C0E0C0F016
:1005D70002068C5018E92582F8D083D082D0E0F942
:1005E700D0E0FAD0E0FBC082C083020663BBFE18EE
:1005F700E92582F8D083D082D0E0F9D0E0FAD0E0C4
:09060700FBC082C08302069E22A2
:10061000E50E2582F582E50D3583F583B50D04855C
:10062000820E2210AF0685820EF50D2285820EF510
:040630000DD2AF2216
:0D063400E50E2582F582E50D3583F5832264
:10002600E50824D0F582E43400F583E00508229043
:1000360000CD3007039000D0E475F001120675027A
:1000460006412000E97F2ED2008018EF540F24903D
:10005600D43440D4FF30040BEF24BFB41A0050034D
:100066002461FFE50960021509050CE50C7002051F
:100076000B30070E9000CDE475F001120675EF0205
:1000860003B80219A57403D2078003E4C207F50872
:100096009000CD12068CE4F509F50BF50CE5096028
:1000A600077F2012006980F5750AFFC201C200C2EF
:1000B60002C203C205C206C208120035FF700D3027
:1000C60007057F0012007AAF0CAE0B22B4255FC283
:1000D600D5C204120035FF24D0B40A00501A75F0B8
:1000E6000A780930D50508B6FF0106C6A426F6200B
:1000F600D5047002D20380D924CFB41A00EF50047D
:10010600C2E5D20402027BD20180C6D20080C0D2F0
:100116000280BCD2D580BAD20580B47F2012006995
:100126002002077401B5090040F1120026FF1200F3
:10013600690200A3D208D2068095120026FB12009F
:1001460026FA120026F94A4B7006794C7A037BFF91
:1001560020022EE509602A7E008E82758300120336
:100166008B60060EEE650A70F0C2D5EBC0E0EAC001
:10017600E0E9C0E0EE1202C2D0E0F9D0E0FAD0E049
:10018600FB120641FF60AAEBC0E0EAC0E0E9C0E06E
:10019600120069D0E02401F9D0E03400FAD0E0FB87
:1001A600E50A0460DCD50AD980877BFF7A0279BE2E
:1001B600D202809C791080027908C206C2088008A3
:1001C600D2D5790A8004790AC2D5E50A047002F507
:1001D6000AE4FAFDFEFF120026FC7B08200113123A
:1001E6000026FD7B1030000A120026FE120026FFB4
:1001F6007B20EC3382D592D55013C3E43000069FA2
:10020600FFE49EFEE42001039DFDE49CFCE4CBF8A4
:10021600C201EC700CCFCECDCCE824F8F870F38098
:1002260017C3EF33FFEE33FEED33FDEC33FCEB3358
:10023600FB994002FB0FD8E9EB300105F8D0E0C48A
:1002460048B201C0E00AEC4D4E4F78207B0070C2E8
:10025600EAB50A0040BCC0E01202C4D0F0D0E020EB
:100266000104C4C0E0C4B201C0F0120052D0F0D5FF
:10027600F0EB0200A31206B301405301BA58011174
:100286004C010D4201BE4F01C64401C64901264339
:0802960001CC5501B04601B096
:10029E004501B047036C5001152D01192E013C2B61
:1002AE00011D23013A2003552A00D54800000134D0
:1002BE003F3F3F00790AA2D5200314300509B9103B
:1002CE00020404B9080104A2D5200602500104203C
:1002DE0002689202B509005034C0E07F2030031945
:1002EE007F30A20272067205500F12031BC202C2A9
:1002FE0006C205C2087F30800F300503E9C0E01248
:10030E000069300503D0E0F9D0E0B509CC3005170F
:10031E007F30B9100C1200697F583004077F788047
:10032E0003B908031200693002057F2D0200697FB0
:10033E00202008F87F2B2006F322920280CF286E11
:10034E00756C6C2900D2011200263001F8C20178BA
:10035E000930D50108F60200D52D50434958120038
:10036E00262403B405004001E49003679312005A5B
:0D037E00743A12005AD2037509040201BA44
:10064100BB010689828A83E0225002E722BBFE02B7
:09065100E32289828A83E49322EA
:09065A00E6FB08E6FA08E6F922C5
:09066300EBF608EAF608E9F622BC
:09066C00E0FBA3E0FAA3E0F9228F
:10067500F8E0FBA3A3E0F925F0F0E582158270020E
:070685001583E0FA38F022B2
:09068C00EBF0A3EAF0A3E9F0226F
:09069500E2FB08E2FA08E2F92296
:09069E00EBF208EAF208E9F2228D
:0C06A700E493FB740193FA740293F922AF
:1006B300D083D082F8E4937012740193700DA3A3D6
:1006C30093F8740193F5828883E4737402936860EA
:0606D300EFA3A3A380DFEA
:00000001FF
