:030000000200C239
:0C00C200787FE4F6D8FD7581200201096A
:10014E002020524541445F524F4D434F5244202090
:10015E0000202020202020202020202020202020B1
:10016E002000204453313842323020204552523044
:10017E005220002020504C454153452043484543D2
:10018E004B2020002054454D503A20202020202086
:10019E00202020200054483A2020202020544C3A81
:1001AE002020202020000C12120C00000000011B49
:0601BE001D191D1B0100CC
:10053400C104021500000208221005170000000083
:1005440000030A000000080D000000000000000085
:0405D3007F057E0022
:1005D700EF1FAA0670011E4A600FE4FDEDC394FAEF
:0905E70050EE000000000D80F34D
:0105F00022E8
:10065700C2B5D2B6D2B400000000E580339207C21B
:03066700B4A20733
:01066A00226D
:070511007E001205D77F01F7
:1005180012065740FBC2B5C2B6C2B400008F8000B5
:0C052800000000D2B400000000C2B422A9
:0305F100EE93FF87
:1005F40012065740FBD2B5C2B6C2B48F80000000C9
:0A06040000D2B400000000C2B422CE
:100555007F40120518E4FE9001B41205F10EEEB4C9
:0F05650008F5E4FE9001BC1205F10EEEB408F5A6
:010574002264
:10040D007F0F1205117F381205181205D37F381290
:10041D0005181205D37F381205181205D37F0C125B
:10042D0005181205D37F061205181F1205111205A6
:04043D00D30205558C
:07000300EF4480FF02051825
:04066B007F507EC37B
:0A066F00EF1F70011E144E70F722F9
:10046F00D2A27F087E0012066FC2A27F5A7E0012B0
:10047F00066FD2A27F087E0012066FA2A292037FA0
:0B048F00647E0012066FD2A2A20322BE
:10057500E4FC7D08C2A2ECC313FCD2A230A2034462
:0F05850080FC7F047E0012066FDDE9AF047E006C
:010594002244
:0505950012046F7FCC91
:02059A00AD07AB
:10059C007B08C2A2ED1392A27F057E0012066FD2D9
:0705AC00A2EDC313FDDBEB20
:0105B3002225
:1005B4001205957F4E12059AAF0812059AAF0912DB
:0F05C400059A7F7F12059A1205957F4802059AC6
:10060E0012046F7F3312059AE4FB120575740D2BDD
:08061E00F8A6070BEBB408F28B
:0106260022B1
:1003CE00E4900002F0FA740D2AF8E6FEE4FD9000C7
:1003DE0002E0FC6E20E006ECC313F0800EEC641815
:1003EE00900002F0E0C313F04480F0EEC313FE0D54
:0E03FE00EDB408DA0AEAB408CD900002E0FF80
:01040C0022CD
:02023500AE0712
:10023700EEB40105E4FF120003EEB402057F40129D
:100247000003E4FE740D2EF8E6900000F054F0C4AD
:10025700540FF517D394094004743780027430257E
:1002670017F517AF171205F4900000E0540FF518B3
:10027700D3940940047437800274302518F518AFF9
:09028700181205F40EEEB408BBD8
:01029000224B
:1002ED00C28C1205957F4412059A12046F7F551228
:1002FD00059AE4FC740D2CF8E6FF12059A0CECB48B
:10030D0008F27FBE12059A1205758F151205758FAD
:10031D00161205758F081205758F09E516540FC451
:10032D0054F0FFE51554F0C4540F4F900003F0D274
:01033D008C33
:01033E00229C
:10000E00E4FDE516D3947F4018E515F404F515F4D8
:10001E0094FF4008E516F404F51680036316FF7D81
:10002E0001E515540FF51B75F00AA4FFE5F0C4F8B1
:10003E0054F0C8EFC4540F482430F517E516540F8A
:10004E00C454F0FFE51554F0FEC4540F4FF51B7564
:10005E00F064842430F51AE51B75F0648485F0187D
:10006E00E51875F00A842430F519E51875F00A8440
:10007E00E5F02430F518E51AB4300B751A20E519A1
:10008E00B43003751920ED6003751A2D7F07120029
:10009E0003AF1A1205F4AF191205F4AF181205F4D6
:1000AE007F2E1205F4AF171205F4E4FF1205F47F4C
:0400BE00430205F400
:10062700E4FD7F467E0012066FB2950DEDB464F2CD
:09063700D2957FA87E6102066FD6
:10049A0012040DE4FF120003E4FEEE90014E93FFF6
:1004AA001205F40EEEB410F212060E1203CE9000EC
:0904BA0002E070057F0212023518
:0104C3002216
:1004410012040DE4FF120003E4FEEE90017093FF2D
:100451001205F40EEEB410F27F40120003E4FEEE3A
:0D04610090018193FF1205F40EEEB410F22D
:01046E00226B
:10038D0012040DE4FF120003E4FEEE90019293FFC0
:10039D001205F40EEEB410F27F40120003E4FEEEEF
:1003AD009001A393FF1205F40EEEB410F21202EDBC
:1003BD00E4FD7F4312033F7D017F4B12033F02009B
:0103CD000E21
:10033F0074082DF8E6FE75F064842430F50CEE7524
:10034F00F0648485F00AE50A75F00A842430F50B11
:10035F00E50A75F00A84E5F02430F50AE50CB430AF
:10036F000B750C20E50BB43003750B20120003AF97
:0E037F000C1205F4AF0B1205F4AF0A0205F4E0
:03000B000204C428
:1004C400C0E0C083C082C0D0758C4C758A00900097
:1004D40004E004F0E0D394094004E4F0B200D0D086
:0704E400D082D083D0E0328A
:10064000AE073000071200037F018007AF061200DB
:07065000037F201205F422D4
:10029100900003E0FFC395084004D2018002C2012F
:1002A100EFC395095004D2028002C2023001137FCC
:1002B10046120640200403120627900001E508F0CB
:1002C100800A7F461200037F201205F43002127F5C
:1002D1004E120640200403120627900001E509F0A2
:0C02E100227F4E1200037F201205F42241
:1004EB00AE07300010900001E0FF74082DF8A6074E
:1004FB00AF0602033FAF061200037F201205F41272
:06050B0005F41205F422C4
:1001C400758901758C4CE4F58AD2AFD2A9D28CF52D
:1001D4008053A01F12046F1205B430030C120441A3
:1001E40012046F1206272003F712049AE4FD120684
:1001F4006B0DEDB40AF812038D12066B1202ED12A8
:10020400066B12000E12029120011020020DE4FD73
:100214007F4312033F0D7F4B12033F300107E4FD80
:100224007F431204EB3002D47D017F4B1204EB8038
:01023400CBFE
:1000CE000201C4E493A3F8E493A34003F68001F283
:1000DE0008DFF48029E493A3F85407240CC8C33333
:1000EE00C4540F4420C8834004F456800146F6DF02
:1000FE00E4800B0102040810204080900534E47E59
:10010E00019360BCA3FF543F30E509541FFEE493F6
:10011E00A360010ECF54C025E060A840B8E493A3BD
:10012E00FAE493A3F8E493A3C8C582C8CAC583CAE8
:10013E00F0A3C8C582C8CAC583CADFE9DEE780BEA0
:0105540000A6
:00000001FF
