:030000000200A259
:0C00A200787FE4F6D8FD758107020003AA
:100092007FBFDFEFF7FBFDFE0C12224422120C00A1
:06006C00F5807F027E001A
:10007200E4FDFCC3ED9FEC9E5015E4FBFA0BBB00C4
:0F008200010AEB64724A70F50DBD00010C80E4B9
:01009100224C
:10000300E4900000F0D2A7F580C2A7E4900000F0CE
:10001300E4F9E990009293F590E990009A93120025
:100023006C09E9B408EC900000E004F0E0C3941E0E
:1000330040DE7F0A7E00120072E4900000F0900020
:1000430000E0C3941E50C4E4F9E990009293F59044
:10005300E990009A9325E054FE12006C09E9B40874
:09006300E8900000E004F080D5F3
:00000001FF
