:0300000002000EED
:0C000E00787FE4F6D8FD758120020055D3
:1002D300C0F9A4B0999282F880908883C6A1868ED3
:0202FA00C10041
:10023600E4FDFCC3ED9FEC9E5015E4FBFA0BBB00FE
:0F024600010AEB64724A70F50DBD00010C80E4F3
:010255002286
:1002B100E4FDFCC3ED9FEC9E50070DBD00010C80D9
:0102C100F24A
:0102C2002219
:1002C300758901758C4C758A1ED2A9D28CD2AF2246
:04009A00AB07AA0600
:10009E007C007D6412011E900003EFF07C007D64F5
:1000AE00AF03AE0212011E7E007F0ACFCDCFCECCA3
:1000BE00CE12011EA3EFF0AE02AF037C007D0A123A
:1000CE00011EA905D2A7758001C2A7D2A690000372
:1000DE00E09002D393F580C2A67F017E0012023615
:1000EE00D2A7758002C2A7D2A6900004E09002D3D8
:1000FE0093F580C2A67F01120236D2A7758004C284
:10010E00A7D2A6AF01EF93F580C2A67F01020236F9
:07000300D2A100D2A00022EF
:0D02E300D2A000D2A100C2A000C2A1002242
:0A02F000C2A000D2A100D2A000229B
:10029600E4FEEF25E0FFC2A10092A000D2A1000E6D
:0A02A600EEB408EEC2A100D2A000E1
:0102B000222B
:10021100E4FEC2A100D2A0FD00D2A10030A0047F63
:10022100018002E4FFEE25E04FFEC2A10DEDB4080E
:04023100E700AF062D
:0102350022A6
:0B025600120296120261AF0512029620
:10026100E4FFD2A10030A009EFC394FF50030F8037
:04027100F4C2A10032
:010275002266
:0201EA00AD075F
:1001EC001202E37FA01202561202E37FA1120296C2
:1001FC00120261120211AB071202F07F0A7E00128A
:04020C0002B1AF0389
:0102100022CB
:10027600AC07C2AF1202E37FA0120296120261AF70
:10028600041202561202F0D2AF7F327E000202B191
:1001B600E4900002F0900000F0A3F01202C31200D7
:1001C600037F021201EAA3EFF0900002E0FF7E0037
:1001D60012009A3000F3C200900002E0FD7F021286
:0401E600027680E538
:03000B000201737C
:10017300C0E0C083C082C0D0758C4C758A1E9000CD
:1001830001E004F07006900000E004F0900000E04D
:100193007004A3E064147012900000F0A3F0A3E0D5
:1001A30004F0D200E0B46402E4F0D0D0D082D08373
:0301B300D0E03267
:10001A000201B6E493A3F8E493A34003F68001F245
:10002A0008DFF48029E493A3F85407240CC8C333E7
:10003A00C4540F4420C8834004F456800146F6DFB6
:10004A00E4800B01020408102040809002FAE47E4A
:10005A00019360BCA3FF543F30E509541FFEE493AB
:10006A00A360010ECF54C025E060A840B8E493A372
:10007A00FAE493A3F8E493A3C8C582C8CAC583CA9D
:10008A00F0A3C8C582C8CAC583CADFE9DEE780BE55
:0102FC000001
:10011E00BC000BBE0029EF8DF084FFADF022E4CCC5
:10012E00F875F008EF2FFFEE33FEEC33FCEE9DEC8E
:10013E00984005FCEE9DFE0FD5F0E9E4CEFD22EDD4
:10014E00F8F5F0EE8420D21CFEADF075F008EF2F1E
:10015E00FFED33FD4007985006D5F0F222C398FD0F
:05016E000FD5F0EA22AC
:00000001FF
