:0300000002000EED
:0C000E00787FE4F6D8FD75810702001E23
:1004C40000C000F900A400B000990092008200F876
:1004D400008000900088008300C600A10086008E82
:0D049700C2A7E4F580D2A6A3E0F580C2A6BE
:1004A400E4FDFCC3ED9FEC9E5015E4FBFA0BBB008E
:0F04B400010AEB64724A70F50DBD00010C80E483
:0104C3002216
:0E04E400438901758C4C758A1ED2A9D28C22D8
:0A04F200438950D2ABD28ED2AF2264
:1003FB00D2A7758001C2A7E4F580D2A6900008E0D1
:10040B00F580C2A67F017E001204A4D2A7758002DC
:10041B00120497D2A7758004120497D2A77580088F
:10042B00120497D2A7758010120497D2A77580205B
:10043B00C2A7E4F580D2A6A3E0F580C2A60204A46D
:10001E001204E41204F290000412033900000000EE
:10002E0090000012033900000000E4FDFCED25E015
:10003E00FFEC33FE74C42FF58274043EF583740115
:10004E0093FF74082DF58274003CF583EFF00DBD1F
:10005E0000010CED64064C70D4308C030202489003
:10006E000000E0F8A3E0F9A3E0FAA3E0FBAF8BE415
:10007E00FCFDFEEB2FFFEE3AFEED39FDEC38FC9069
:10008E00000012032D900000E0F8A3E0F9A3E0FABF
:10009E00A3E0FBAF8DEF7F00FEE4FCFDEF2BFFEA4C
:1000AE003EFEED39FDEC38FC90000012032D7B4036
:1000BE007A42790F7800900000E0FCA3E0FDA3E007
:1000CE00FEA3E0FF12028AAC00AD01AE02AF037BCD
:1000DE00A07A867901780012028A9004C475F00223
:1000EE00EF12036AEE25E02583F5837401939000E9
:1000FE0008F07BA07A8679017800900000E0FCA3DE
:10010E00E0FDA3E0FEA3E0FF12028AAC00AD01AE5B
:10011E0002AF03E47B107A27F9F812028A9004C426
:10012E0075F002EF12036AEE25E02583F583740164
:10013E0093900009F0E47B107A27F9F8900000E024
:10014E00FCA3E0FDA3E0FEA3E0FF12028AAC00AD2B
:10015E0001AE02AF03E47BE87A03F9F812028A904B
:10016E0004C475F002EF12036AEE25E02583F583D1
:10017E0074019390000AF0E47BE87A03F9F890009A
:10018E0000E0FCA3E0FDA3E0FEA3E0FF12028AACB8
:10019E0000AD01AE02AF03E47B64FAF9F812028AF5
:1001AE009004C475F002EF12036AEE25E02583F584
:1001BE008374019390000BF0E47B64FAF9F89000DD
:1001CE0000E0FCA3E0FDA3E0FEA3E0FF12028AAC78
:1001DE0000AD01AE02AF03E47B0AFAF9F812028A0F
:1001EE009004C475F002EF12036AEE25E02583F544
:1001FE008374019390000CF0E47B0AFAF9F89000F6
:10020E0000E0FCA3E0FDA3E0FEA3E0FF12028A9053
:10021E0004C475F002EB12036AEA25E02583F58328
:10022E0074019390000DF09000001203390000004D
:10023E0000E4F58DF58BD28CD28E1203FB02006793
:03000B0002037677
:10037600C0E0C0F0C083C082C0D075D000C000C04D
:1003860001C002C003C004C005C006C007758C4C7E
:10039600758A1E900004E0FCA3E0FDA3E0FEA3E046
:1003A6002401FFE43EFEE43DFDE43CFC9000041223
:1003B600032DE47F14FEFDFC900004E0F8A3E0F9B1
:1003C600A3E0FAA3E0FBC312031C700EC28CC28E1C
:1003D60090000412033900000000D007D006D005B3
:1003E600D004D003D002D001D000D0D0D082D083A8
:0503F600D0F0D0E03260
:03001B0002044B91
:10044B00C0E0C0F0C083C082C0D075D000C000C077
:10045B0004C005C006C007900000E0FCA3E0FDA3AC
:10046B00E0FEA3E02400FFE43EFEED3401FDE43C9E
:10047B00FC90000012032DD007D006D005D004D07D
:0C048B0000D0D0D082D083D0F0D0E0327E
:10024E0075F008758200EF2FFFEE33FECD33CDCC67
:10025E0033CCC58233C5829BED9AEC99E5829840EA
:10026E000CF582EE9BFEED9AFDEC99FC0FD5F0D6C7
:10027E00E4CEFBE4CDFAE4CCF9A88222B800C1B9F1
:10028E000059BA002DEC8BF084CFCECDFCE5F0CB2F
:10029E00F97818EF2FFFEE33FEED33FDEC33FCEB68
:1002AE0033FB10D703994004EB99FB0FD8E5E4F923
:1002BE00FA227818EF2FFFEE33FEED33FDEC33FC10
:1002CE00C933C910D7059BE99A4007EC9BFCE99A04
:1002DE00F90FD8E0E4C9FAE4CCFB2275F010EF2F49
:1002EE00FFEE33FEED33FDCC33CCC833C810D70749
:1002FE009BEC9AE899400AED9BFDEC9AFCE899F884
:0E030E000FD5F0DAE4CDFBE4CCFAE4C8F92216
:10031C00EB9FF5F0EA9E42F0E99D42F0E89C45F037
:01032C0022AE
:0C032D00ECF0A3EDF0A3EEF0A3EFF02243
:10033900A8828583F0D083D0821203501203501211
:100349000350120350E473E493A3C583C5F0C58336
:10035900C8C582C8F0A3C583C5F0C583C8C582C80E
:010369002271
:0C036A00A42582F582E5F03583F583229E
:00000001FF
