:03000000021717CD
:0C171700787FE4F6D8FD75810702136F9F
:1016F700506C6561736520546F756368204D652173
:0117070000E1
:10160A00E4FDFCC3ED9FEC9E5015E4FBFA0BBB0016
:0F161A00010AEB64F94A70F50DBD00010C80E484
:01162900229E
:1016E600759850758920758DFD758BFDD2ACD28E9F
:0116F60022D1
:1014900090025AEBF0A3EAF0A3E9F0A3ECF0A3ED7D
:0114A000F05B
:1014A100E4FFFED390025EE09FEE6480F890025D5F
:1014B100E06480984026C2ACC29990025AE0FBA336
:1014C100E0FAA3E0F98F828E8312071DF599309916
:0C14D100FDC299D2AC0FBF00010E80C715
:0114DD0022EC
:060A240090022412084FAD
:100A2A0090022812085B0000000090022C12085B5A
:100A3A000000000090023012085B000000009002E3
:100A4A00227401F0A3743FF07BEF7A00E4FDFCFF0F
:100A5A00FE1212897F007E2C7D017C00900228E024
:100A6A00F8A3E0F9A3E0FAA3E0FBC312083E4003AF
:100A7A00020B9BE4FF7E02FDFC900230E0F8A3E04B
:100A8A00F9A3E0FAA3E0FB1207EF900224E0F8A32F
:100A9A00E0F9A3E0FAA3E02FFFEA3EFEE93DFDE814
:100AAA003CFC90024A7402F0A3E4F07B017A0079DC
:100ABA00001211FE90022C12085B00000000E4FFF5
:100ACA007E01FDFC90022CE0F8A3E0F9A3E0FAA372
:100ADA00E0FBC312083E4003020B7990022CA3A349
:100AEA00E0FEA3E090000175F00212088CEE25E00A
:100AFA002583F583E0FF90022CA3A3A3E0900000D6
:100B0A0075F00212088CEA25E02583F583E0FD12D0
:100B1A0016CE900228E0FCA3E0FDA3E0FEA3E024A9
:100B2A0001FFE43EFEE43DFDE43CFC90022812088D
:100B3A004F7F007E2C7D017C00900228E0F8A3E024
:100B4A00F9A3E0FAA3E0FBC312083E502290022C5C
:100B5A00E0FCA3E0FDA3E0FEA3E02401FFE43EFEE7
:100B6A00E43DFDE43CFC90022C12084F020AC890B6
:100B7A000230E0FCA3E0FDA3E0FEA3E02401FFE4D1
:100B8A003EFEE43DFDE43CFC90023012084F020AAE
:010B9A005EFC
:010B9B002237
:10136F00D2A67580FFC2A6D2A77580FFC2A7E49050
:10137F00025FF0A3F0A3F0A3F01208987DFF7FFFA8
:10138F001213DF7BFF7A1679F790020774F8F0A338
:10139F00E4F074FFA3F0A3F07D287C00E4FFFE12BD
:1013AF000B9C120FAB785F7C027D017E007F0412D5
:1013BF0006DE90025FE0FEA3E0FFF47002EEF46041
:1013CF00E1A3E0FCA3E0FD7B007A0412143B80D282
:0915E1007CCC7F131216677F0118
:1015EA00E4FDFCC3ED9FEC9E5015E4FBFA0BBB0037
:0F15FA00010AEB64F94A70F50DBD00010C80E4A5
:0116090022BE
:0F1708008F80C2B6D2B6AF058F80C2B6D2B622DE
:05172C00C2B502170820
:0F16BF001216CEE0FF1216CEE0FF1216CEE0FF9D
:0516CE00D2B50217086F
:03166400E4FDFCA6
:10166700AB05AA04AD07AC06ECFF12172CEAFFADD9
:04167700030216CE86
:1012890090021CEEF0A3EFF0A3ECF0A3EDF07D4685
:10129900E4FF12172CAF0390021CA3E0FD1216CE37
:1012A9007D47E4FF12172C900222E0FCA3E0FDEC3D
:1012B900FF1216CE7D48E4FF12172C90021EE0FCA7
:1012C900A3E0FDECFF1216CE7D20E4FF12172C904F
:1012D900021CE0FCA3E0FDECFF1216CE7D21E4FF29
:1012E90012172CA3E0FCA3E0FDECFF1216CE7D2221
:0512F900E4FF02172CC8
:10089800D2B37F057E001215EAC2B31215EAD2B3AD
:1008A800D2B7D2B4D2B61215EAC2B77D047C207F83
:1008B800111216677D007CCC7F131216677D007CB1
:1008C800267F151216677D2A7C257F141216677DF0
:1008D800337C007F121216677D041215E17D061223
:1008E80015E17D4F1215E17D4F7C677F1312166766
:1008F8007D037C207F111215E57D097C267F30124F
:1009080016677D2C7C247F311216677D237C1F7F20
:10091800321216677D257C247F331216677D267C6C
:10092800227F341216677D237C257F351216677D5A
:100938001A7C1C7F361216677D1D7C137F371216B2
:10094800677D117C0B7F381216677D107C127F390A
:100958001216677D157C137F3A1216677D197C364F
:100968007F3B1216677D007C0D7F3C1216677D0D5C
:100978007C007F3D1216677D077C007F1612166784
:100988007D137C007F021216677D037C007F0312B3
:1009980016677D277C017F011215E57403FDFC7F36
:1009A800081216677D0B7C007F0A1216677D037C90
:1009B800007F0B1216677F0C1216647F41121664B3
:1009C800E4FDFC7F501216677D057C007F601216DF
:1009D800677D0B7C007F70121667E4FDFC7F711247
:1009E8001667E4FDFC7F78121667E4FDFC7F7A1237
:1009F80016677D077C007F791216677D517C007F22
:100A0800071215E57D537C007F07121667E4FDFC8D
:0C0A18007F791216677D22E4FF02172C84
:0713DF00900200EFF0A905E8
:1013E6009002227401F0A3743FF07BEF7A00E4FDD3
:1013F600FCFFFE121289E4900201F0A3F0E4FBFA6E
:10140600900200E0FFAD011216CE0BBB00010AEB05
:1014160064F04A70EB900202E004F070069002015C
:10142600E004F0C3900202E09440900201E0648080
:04143600948140C994
:01143A00228F
:100CE100900236ECF0A3EDF0900234EEF0A3EFF0B9
:100CF100900239E02FFB900238E03EFAD3EB94F0FA
:100D0100EA940040037F002290023AE0FEA3E0FF54
:100D1100900236E0FCA3E0FD2FFFEC3EFED3EF9402
:100D210040EE940140037F0022EB24FFFBEA34FFF5
:100D3100FA90023AE0FEA3E0FF900236E0F8A3E069
:100D41002FFFE83ECF24FFCF34FF900222F0A3EF24
:100D5100F0900234E0FEA3E0FF12128990023AE023
:100D6100FCA3E0FD900238E0FEA3E0FF12075C90D7
:100D71000241EEF0A3EFF0E490023FF0A3F0900205
:100D810041E0FEA3E0FFC3900240E09F90023FE0FC
:100D91009E5040A3E025E0FD90023FE033FCED24AE
:100DA10001FFE43CFE90023CE0FBA3E0FAA3E0F982
:100DB1008F828E8312071DFF8D828C8312071DFD8A
:100DC1001216CE900240E004F0700690023FE0045B
:050DD100F080AB7F0182
:010DD60022FA
:1010910090024EECF0A3EDF090024CEEF0A3EFF0D5
:0810A100900250EAF0A3EBF00D
:1010A9002FFFEE3AFED3EF94F0EE940040037F0059
:1010B90022900252E0FEA3E0FF90024EE0FCA3E082
:1010C900FD2FFFEC3EFED3EF9440EE940140037FE9
:1010D9000022900250E0FEA3E0FF90024CE0FAA348
:1010E900E02FFFEA3ECF24FFFBEF34FFFA900252D4
:1010F900E0FEA3E0FF90024EE0F8A3E02FFFE83EF8
:10110900CF24FFCF34FF900222F0A3EFF090024CDE
:10111900E0FEA3E0FF121289900252E0FCA3E0FD79
:10112900900250E0FEA3E0FF12075CAB07AA06900D
:101139000000C3E5829BE5839A500A7DFF7FFF1279
:0711490016CEA380ED7F012B
:01115000227C
:1015AF00E4FDFC90000F75F00DED12088CEC75F05A
:1015BF000DA42583F583E493FE64206010EEB50738
:1015CF0005AF05AE04220DBD00010C80D6AE04AFF1
:0115DF000506
:0115E00022E8
:100DD700900211ECF0A3EDF090020FEEF0A3EFF00C
:100DE7002408FFE43EFED3EF94F0EE9400400302A4
:100DF7000EC1900212E0240CFF900211E03400FEB5
:100E0700D3EF9440EE94014003020EC1AF031215D5
:100E1700AF900218EEF0A3EFF090020FE0FAA3E014
:100E2700FBFFAE02C006C007A3E0FCA3E0FDEB2476
:100E370007FBE43AFA900211E0FEA3E0240BFFE47B
:100E47003E900222F0A3EFF0D007D006121289E4F9
:100E5700FAE4FB900218E0FEA3E090000375F00DA2
:100E670012088CEE75F00DA42583F583E5822AF52B
:100E770082E43583F583E493F582758300C37407B1
:100E87009BFF74017E00A807088005C333CE33CECD
:100E9700D8F9FFEE5583FEEF55824E600590021498
:100EA7008003900216E0FCA3E0FDECFF1216CE0BC8
:0A0EB700EBB4089F0AEA640C709780
:010EC100220E
:1014DE00E4FFFE9004EE75F01AEF12088CEE75F034
:1014EE001AA42583F583E493FD6420602F1207046C
:1014FE00FCEDB5042090000112071DFD9004EF7560
:10150E00F01AEF12088CEE75F01AA42583F583E419
:0C151E0093B50501220FBF00010E80B73D
:01152A00229E
:100EC200900211ECF0A3EDF090020FEEF0A3EFF020
:100ED2002408FFE43EFED3EF94F0EE9400400302B8
:100EE2000FAA900212E0240CFF900211E03400FEDF
:100EF200D3EF9440EE94014003020FAA1214DE9045
:100F0200021AEEF0A3EFF090020FE0FAA3E0FBFF6B
:100F1200AE02C006C007A3E0FCA3E0FDEB240FFB7A
:100F2200E43AFA900211E0FEA3E0240BFFE43E90C3
:100F32000222F0A3EFF0D007D006121289E4FAE4FD
:100F4200FB90021AE0FEA3E09004D675F01A120894
:100F52008CEE75F01AA42583F583E5822AF582E4E6
:100F62003583F583E493F582758300C374079BFF91
:100F720074017E00A807088005C333CE33CED8F9AA
:100F8200FFEE5583FEEF55824E60059002168003F8
:100F9200900218E0FCA3E0FDECFF1216CE0BEBB4BE
:080FA200089F0AEA6418709729
:010FAA002224
:100B9C00900204EBF0A3EAF0A3E9F0900200EEF06F
:030BAC00A3EFF0C4
:100BAF0090020BEEF0A3EFF0AF05A3ECF0A3EFF084
:100BBF00900204E0FBA3E0FAA3E0F912070470032C
:100BCF00020CE0C394804003020C5990020DE0FC2C
:100BDF00A3E0FD120704FB900207E0FFA3E09002E1
:100BEF0014CFF0A3EFF0900209E0FFA3E0900216FC
:100BFF00CFF0A3EFF090020BE0FEA3E0FF120DD7B2
:100C0F0090020CE02408F090020BE03400F0A3E017
:100C1F002408FF90020BE03400FEC3EF94F0EE9433
:100C2F0000401D900200E0FFA3E090020BCFF0A365
:100C3F00EFF090020EE0240CF090020DE03400F083
:100C4F00900205E475F001020CDA90020DE0FCA3AE
:100C5F00E0FD900204E0FBA3E0FAA3E0F9A3E0FFBC
:100C6F00A3E0900216CFF0A3EFF0900209E0FFA3EC
:100C7F00E0900218CFF0A3EFF090020BE0FEA3E09C
:100C8F00FF120EC290020CE02410F090020BE03421
:100C9F0000F0A3E02410FF90020BE03400FEC3EF3E
:100CAF0094F0EE9400401D900200E0FFA3E090024C
:100CBF000BCFF0A3EFF090020EE0240CF090020D9A
:100CCF00E03400F0900205E475F0021207C3020B46
:010CDF00BF55
:010CE00022F1
:0E143B00900200EEF0A3EFF0A3ECF0A3EDF0B2
:10144900EAA3F0AF03A907900200E0FAA3E0FFAE18
:1014590002C006C0072402FBE43AFAA3E0FEA3E0B7
:101469002402FFE43E900222F0A3EFF0D007D00659
:10147900121289900204E0FFAD011216BFE0FF12BB
:0714890016BFE0FF0216CEC2
:10000300000010101010101000180000210012241E
:100013004800000000000000002200002424FE48E5
:1000230048FE484800002300103C54503018145434
:10003300781000240000E4A4A8F01E2A2A4E000031
:100043002500003048487EA494887700002600608D
:10005300204000000000000000002700020C0810F0
:10006300101010080806002800402010080808088F
:10007300102040002900000010927C7C92100000A8
:10008300002A0000101010FE1010100000002B00BA
:1000930000000000000000006020402C0000000071
:1000A300007F0000000000002D00000000000000A1
:1000B30000006000002E0001020604080810202042
:1000C30040002F00003C2442424242243C000030C6
:1000D3000000107010101010107C00003100003C64
:1000E3004242040810627E00003200003C42021CBF
:1000F3000202423C00003300000C142444443C043C
:100103000C00003400007E40407C0202423C0000B0
:100113003500001C24405C6242623C000036000053
:100123007E4408081010101000003700003C4242C3
:10013300342C42423C0000380000186442463A0224
:10014300243C0000390000000018000000001800E3
:10015300003A0000000000100000001010003B00F7
:10016300020418204020100C0200003C0000000094
:10017300FE0000FE000000003D00402018040204C1
:1001830008304000003E00003C4262020C080018A8
:1001930000003F00003C469AAAAABC403E00004033
:1001A300000010182824247C42E70000410000F8D6
:1001B300444478464242FC00004200003E428080B4
:1001C3008080423C0000430000F8444242424244E3
:1001D300F80000440000FC424878484042FC00001C
:1001E300450000FC424878484040E00000460000DB
:1001F3003C4480808E8444380000470000E742423C
:100203007E424242E700004800007C1010101010AC
:10021300107C00004900003E08080808080888F020
:10022300004A0000EE444870504844EE00004B0082
:1002330000E0404040404042FE00004C0000EE6CB5
:100243006C6C545454D600004D0000C76252524A9D
:100253004646E200004E00003C44828282824438DB
:1002630000004F0000FC42427C404040E000005050
:1002730000003844828282B24C380600510000FCF0
:1002830042427C484446E300005200003E4240386C
:100293000402427C0000530000FE92101010101064
:1002A300380000540000E74242424242423C000010
:1002B300550000E74244242C281810000056000083
:1002C300D69292929A6C64440000570000E7662429
:1002D30018182466E70000580000EE442838101070
:1002E300103800005900007E840810102042FC00E2
:1002F300005A001E10101010101010101E005B008A
:1003030040202010100808040402005C007808084C
:1003130008080808080878005D001C220000000097
:1003230000000000005E000000000000000000006C
:1003330000FF5F00200000000000000000000060DC
:1003430000000000003C423E423F0000610000C04C
:1003530040405C6242427C00006200000000003CBE
:100363006240423C00006300000602021E624242F9
:100373003F00006400000000003C427E403E00005D
:100383006500000F10107E1010107C000066000046
:100393000000003E4438407C423C670000C04040BF
:1003A3005C624242E70000680000300000701010F9
:1003B300107C00006900000C00001C040404040409
:1003C300786A0000C040404E587048EE00006B0051
:1003D30000701010101010107C00006C0000000062
:1003E30000FF494949ED00006D0000000000D86698
:1003F3004242E700006E00000000003C4242423CE3
:1004030000006F0000000000F84642427C40E070AC
:1004130000000000003E4242423E0207710000001D
:100423000000EE302020F800007200000000003EC3
:10043300403C427C00007300000010107C10101040
:100443000C0000740000000000C64242423F00005E
:10045300750000000000E746242810000076000025
:10046300000000D7929A6A44000077000000000061
:100473006E3C183C760000780000000000E746243C
:10048300181810E07900000000007E4418327E0046
:10049300007A0007040404080404040403007B082E
:1004A30008080808080808080808087C00701010E5
:1004B30010081010101060007D304C030000000085
:1004C30000000000007E00000000000000000000AB
:1004D3000000200200FA000BE08C2058405100215C
:1004E3000021005280528084400820BBB68400590A
:1004F300E011201120D12051205520592051604175
:10050300004100BFE0D3AD110011002FE021006FC7
:10051300E0A9202FE029002500220025802860CAB9
:10052300B900007FC0444044407FC0444044407F02
:10053300C044404440444081C0D3C3210078804F2D
:10054300E0680058004B80FA804A806A805AA04CC9
:10055300A09860BABD040004000400FFE004000A90
:10056300000A0012001100290044808060CCAB080F
:10057300000800FF8088808880FF8088808880FF53
:10058300808820082007E0B5E700003F80010002D3
:100593000004000400FFE004000400040004001C45
:1005A30000D7D3208011007FC044407FC044407FE8
:1005B300C00400FFE0040004000400B5A50100210D
:1005C30000210021003FE0200020003F80208040E8
:1005D3008040808080C6AC200027802480F4802463
:1005E3008074806C80A480248024A028A03060BB09
:1005F300FA000000000000000000000000000000FE
:0B0603000000000000000000002020AC
:08164900E0FF121651A3E0FFBF
:101651007E08C292EF339291EF25E0FFD292DEF243
:02166100D29124
:011663002264
:1016D3007E08C292D292EF25E0FF3093034401FFCC
:0216E300DEF037
:0116E50022E2
:10167B00E4FC1216D3AD07ED600AED640160050CB6
:06168B00ECB409EEAF050E
:011691002236
:10169200EF4440FF121651900255121649A312163A
:0716A20049A3E0FF0216510D
:1012FE00E4900263F0A3F0A3F0A3F07D01D290FC82
:10130E007FFF1216510CECB40AF6C29090025512E1
:10131E00085B000000009002597495F0E4FF12166D
:10132E009212167BAD07ED640160037F0022EDB4CF
:10133E000125D2907FFF121651C2909002551208CD
:10134E005B00FFC00090025974FFF07F01121692ED
:10135E0012167BAD0780D7D2907FFF1216517F01F8
:01136E00225C
:0F11FE00900243EBF0A3EAF0A3E9F0A312084F2D
:10120D00C290900246E0FCA3E0FDA3E0FEA3E0FF48
:10121D0090025512084F90025974FFF07F1112166B
:10122D009212167BEF70521216D3BFFEFAE4FDFC3C
:10123D00D390024BE09D90024AE09C401E1216D3C3
:10124D00900243E0FBA3E475F0011207D9A9F0FA6F
:10125D00EF12074A0DBD00010C80D5C3EC9402506E
:10126D000A1216D30DBD00010C80F01216D3121602
:0B127D00D3D2901216D37F01227F0015
:011288002243
:09172300D296D297D295D29722FA
:1016A900E4FEC297EF25E0FF9295C29700D297001A
:0516B9000EEEB408EF85
:0116BE002209
:10162A00E4FDFFFEEF25E0FFEE33FED29700C297FE
:0E163A00003094050FBF00010E0DEDB40CE65C
:01164800227F
:10115100E4FF900214E0FCA3E0FD900210E0FAA38A
:10116100E0FBD39DEA9C4008EB9DFDEA9CFC8015C9
:10117100900210E0FCA3E0FDC3900215E09DFD90FC
:101181000214E09CFC900218ECF0A3EDF090021622
:10119100E0FCA3E0FD900212E0FAA3E0FBD39DEA9C
:1011A1009C4008EB9DFDEA9CFC8015900212E0FC3E
:1011B100A3E0FDC3900217E09DFD900216E09CFCA8
:1011C100C3900219E0940E900218E064809480505C
:1011D1002BC3ED940BEC6480948050207F0190022E
:1011E10010E0FDA3E0900267CDF0A3EDF0900212B4
:0C11F100E0FDA3E0900269CDF0A3EDF05A
:0111FD0022CF
:10157500121723C2967F901216A9D29700C2970020
:1015850012162A900212EEF0A3EFF07FD01216A9E0
:10159500D29700C2970012162A900210EEF0A3EF20
:0915A500F0D2967B017A02791064
:0115AE00221A
:10152B0012157578087C027D017E007F041206DEA1
:10153B00121575780C7C027D017E007F041206DE8D
:10154B0078107C027D017B017A0279087E007F0492
:10155B001206DE78147C027D017B017A02790C7E07
:09156B00007F041206DE1211518A
:011574002254
:100FAB0074FF900200F0A3F0A3F0A3F030B20302A1
:0D0FBB00108A12152BEF6401600302108AEA
:100FC800900204F0A3F0A3F0A3F0900268E024B626
:100FD800FF900267E034FEFE7C007D0A12075C7D0C
:100FE8008E12076EC374F09FFFE49E900204F0FA1D
:100FF800A3EFF090026AE02484FF900269E034FED7
:10100800FE7C007D0B12076EC374409F900207F0B0
:1010180074019E900206F0C3EA648094805007E44D
:10102800900204F0A3F0C3900206E064809480501C
:1010380004E4F0A3F0D3900205E094F0900204E0F9
:10104800648094804006E4F0A374F0F0D390020723
:10105800E09440900206E06480948140077401F0B7
:10106800A37440F0900204E0FFA3E0900200CFF0E8
:10107800A3EFF0900206E0FFA3E0900202CFF0A3F6
:02108800EFF087
:06108A007B017A027900EF
:01109000223D
:10060E00E709F608DFFA8046E709F208DFFA803ECE
:10061E0088828C83E709F0A3DFFA8032E309F608BB
:10062E00DFFA8078E309F208DFFA807088828C8323
:10063E00E309F0A3DFFA806489828A83E0A3F608D7
:10064E00DFFA805889828A83E0A3F208DFFA804CB1
:10065E0080D280FA80C680D4806980F28033801088
:10066E0080A680EA809A80A880DA80E280CA8033F1
:10067E0089828A83ECFAE493A3C8C582C8CCC58369
:10068E00CCF0A3C8C582C8CCC583CCDFE9DEE78039
:10069E000D89828A83E493A3F608DFF9ECFAA9F0B8
:1006AE00EDFB2289828A83ECFAE0A3C8C582C8CC0E
:1006BE00C583CCF0A3C8C582C8CCC583CCDFEADE27
:1006CE00E880DB89828A83E493A3F208DFF980CC89
:1006DE0088F0EF60010E4E60C388F0ED2402B40482
:1006EE000050B9F582EB2402B4040050AF23234529
:0606FE00822390065E73EA
:10070400BB010689828A83E0225002E722BBFE02F3
:09071400E32289828A83E4932226
:10071D00BB010CE58229F582E5833AF583E0225091
:10072D0006E92582F8E622BBFE06E92582F8E222DB
:0D073D00E58229F582E5833AF583E49322F5
:10074A00BB010689828A83F0225002F722BBFE018E
:02075A00F32288
:10075C00EF8DF0A4A8F0CF8CF0A428CE8DF0A42EB1
:02076C00FE226B
:10076E00BC000BBE0029EF8DF084FFADF022E4CC6F
:10077E00F875F008EF2FFFEE33FEEC33FCEE9DEC38
:10078E00984005FCEE9DFE0FD5F0E9E4CEFD22ED7E
:10079E00F8F5F0EE8420D21CFEADF075F008EF2FC8
:1007AE00FFED33FD4007985006D5F0F222C398FDB9
:0507BE000FD5F0EA2256
:1007C300C5F0F8A3E028F0C5F0F8E58215827002C1
:0607D3001583E038F0225E
:1007D900A3F8E0C5F025F0F0E582158270021583D3
:0607E900E0C838F0E82230
:1007EF00E88FF0A4CC8BF0A42CFCE98EF0A42CFCA9
:1007FF008AF0EDA42CFCEA8EF0A4CDA8F08BF0A427
:10080F002DCC3825F0FDE98FF0A42CCD35F0FCEB85
:10081F008EF0A4FEA9F0EB8FF0A4CFC5F02ECD394A
:0F082F00FEE43CFCEAA42DCE35F0FDE43CFC22B7
:10083E00EB9FF5F0EA9E42F0E99D42F0E89C45F010
:01084E002287
:0C084F00ECF0A3EDF0A3EEF0A3EFF0221C
:10085B00A8828583F0D083D082120872120872129C
:10086B000872120872E473E493A3C583C5F0C583C1
:10087B00C8C582C8F0A3C583C5F0C583C8C582C8E7
:01088B00224A
:0C088C00A42582F582E5F03583F5832277
:00000001FF
